{
	"Fundme.sol": {
		"FundMe": {
			"abi": [
				{
					"inputs": [],
					"stateMutability": "nonpayable",
					"type": "constructor"
				},
				{
					"inputs": [
						{
							"internalType": "address",
							"name": "funder",
							"type": "address"
						}
					],
					"name": "addressToAmountFunded",
					"outputs": [
						{
							"internalType": "uint256",
							"name": "amountFunded",
							"type": "uint256"
						}
					],
					"stateMutability": "view",
					"type": "function"
				},
				{
					"inputs": [],
					"name": "fund",
					"outputs": [],
					"stateMutability": "payable",
					"type": "function"
				},
				{
					"inputs": [
						{
							"internalType": "uint256",
							"name": "",
							"type": "uint256"
						}
					],
					"name": "funders",
					"outputs": [
						{
							"internalType": "address",
							"name": "",
							"type": "address"
						}
					],
					"stateMutability": "view",
					"type": "function"
				},
				{
					"inputs": [],
					"name": "minUSD",
					"outputs": [
						{
							"internalType": "uint256",
							"name": "",
							"type": "uint256"
						}
					],
					"stateMutability": "view",
					"type": "function"
				},
				{
					"inputs": [],
					"name": "owner",
					"outputs": [
						{
							"internalType": "address",
							"name": "",
							"type": "address"
						}
					],
					"stateMutability": "view",
					"type": "function"
				},
				{
					"inputs": [],
					"name": "withdraw",
					"outputs": [],
					"stateMutability": "nonpayable",
					"type": "function"
				}
			],
			"devdoc": {
				"kind": "dev",
				"methods": {},
				"version": 1
			},
			"evm": {
				"assembly": "    /* \"Fundme.sol\":116:2122  contract FundMe {... */\n  mstore(0x40, 0x80)\n    /* \"Fundme.sol\":206:214  5 * 1e10 */\n  0x0ba43b7400\n    /* \"Fundme.sol\":182:214  uint256 public minUSD = 5 * 1e10 */\n  0x00\n  sstore\n    /* \"Fundme.sol\":448:499  constructor() {... */\n  callvalue\n  dup1\n  iszero\n  tag_1\n  jumpi\n  0x00\n  dup1\n  revert\ntag_1:\n  pop\n    /* \"Fundme.sol\":481:491  msg.sender */\n  caller\n    /* \"Fundme.sol\":473:478  owner */\n  0x03\n  0x00\n    /* \"Fundme.sol\":473:491  owner = msg.sender */\n  0x0100\n  exp\n  dup2\n  sload\n  dup2\n  0xffffffffffffffffffffffffffffffffffffffff\n  mul\n  not\n  and\n  swap1\n  dup4\n  0xffffffffffffffffffffffffffffffffffffffff\n  and\n  mul\n  or\n  swap1\n  sstore\n  pop\n    /* \"Fundme.sol\":116:2122  contract FundMe {... */\n  dataSize(sub_0)\n  dup1\n  dataOffset(sub_0)\n  0x00\n  codecopy\n  0x00\n  return\nstop\n\nsub_0: assembly {\n        /* \"Fundme.sol\":116:2122  contract FundMe {... */\n      mstore(0x40, 0x80)\n      jumpi(tag_1, lt(calldatasize, 0x04))\n      shr(0xe0, calldataload(0x00))\n      dup1\n      0x3ccfd60b\n      eq\n      tag_2\n      jumpi\n      dup1\n      0x3e47d6f3\n      eq\n      tag_3\n      jumpi\n      dup1\n      0x8da5cb5b\n      eq\n      tag_4\n      jumpi\n      dup1\n      0xb60d4288\n      eq\n      tag_5\n      jumpi\n      dup1\n      0xdc0d3dff\n      eq\n      tag_6\n      jumpi\n      dup1\n      0xdc992aa0\n      eq\n      tag_7\n      jumpi\n    tag_1:\n      0x00\n      dup1\n      revert\n        /* \"Fundme.sol\":911:1838  function withdraw() public onlyOwner {... */\n    tag_2:\n      callvalue\n      dup1\n      iszero\n      tag_8\n      jumpi\n      0x00\n      dup1\n      revert\n    tag_8:\n      pop\n      tag_9\n      tag_10\n      jump\t// in\n    tag_9:\n      stop\n        /* \"Fundme.sol\":290:366  mapping(address funder => uint256 amountFunded) public addressToAmountFunded */\n    tag_3:\n      callvalue\n      dup1\n      iszero\n      tag_11\n      jumpi\n      0x00\n      dup1\n      revert\n    tag_11:\n      pop\n      tag_12\n      0x04\n      dup1\n      calldatasize\n      sub\n      dup2\n      add\n      swap1\n      tag_13\n      swap2\n      swap1\n      tag_14\n      jump\t// in\n    tag_13:\n      tag_15\n      jump\t// in\n    tag_12:\n      mload(0x40)\n      tag_16\n      swap2\n      swap1\n      tag_17\n      jump\t// in\n    tag_16:\n      mload(0x40)\n      dup1\n      swap2\n      sub\n      swap1\n      return\n        /* \"Fundme.sol\":375:395  address public owner */\n    tag_4:\n      callvalue\n      dup1\n      iszero\n      tag_18\n      jumpi\n      0x00\n      dup1\n      revert\n    tag_18:\n      pop\n      tag_19\n      tag_20\n      jump\t// in\n    tag_19:\n      mload(0x40)\n      tag_21\n      swap2\n      swap1\n      tag_22\n      jump\t// in\n    tag_21:\n      mload(0x40)\n      dup1\n      swap2\n      sub\n      swap1\n      return\n        /* \"Fundme.sol\":507:903  function fund() public payable{... */\n    tag_5:\n      tag_23\n      tag_24\n      jump\t// in\n    tag_23:\n      stop\n        /* \"Fundme.sol\":259:283  address[] public funders */\n    tag_6:\n      callvalue\n      dup1\n      iszero\n      tag_25\n      jumpi\n      0x00\n      dup1\n      revert\n    tag_25:\n      pop\n      tag_26\n      0x04\n      dup1\n      calldatasize\n      sub\n      dup2\n      add\n      swap1\n      tag_27\n      swap2\n      swap1\n      tag_28\n      jump\t// in\n    tag_27:\n      tag_29\n      jump\t// in\n    tag_26:\n      mload(0x40)\n      tag_30\n      swap2\n      swap1\n      tag_22\n      jump\t// in\n    tag_30:\n      mload(0x40)\n      dup1\n      swap2\n      sub\n      swap1\n      return\n        /* \"Fundme.sol\":182:214  uint256 public minUSD = 5 * 1e10 */\n    tag_7:\n      callvalue\n      dup1\n      iszero\n      tag_31\n      jumpi\n      0x00\n      dup1\n      revert\n    tag_31:\n      pop\n      tag_32\n      tag_33\n      jump\t// in\n    tag_32:\n      mload(0x40)\n      tag_34\n      swap2\n      swap1\n      tag_17\n      jump\t// in\n    tag_34:\n      mload(0x40)\n      dup1\n      swap2\n      sub\n      swap1\n      return\n        /* \"Fundme.sol\":911:1838  function withdraw() public onlyOwner {... */\n    tag_10:\n        /* \"Fundme.sol\":2027:2032  owner */\n      0x03\n      0x00\n      swap1\n      sload\n      swap1\n      0x0100\n      exp\n      swap1\n      div\n      0xffffffffffffffffffffffffffffffffffffffff\n      and\n        /* \"Fundme.sol\":2013:2032  msg.sender == owner */\n      0xffffffffffffffffffffffffffffffffffffffff\n      and\n        /* \"Fundme.sol\":2013:2023  msg.sender */\n      caller\n        /* \"Fundme.sol\":2013:2032  msg.sender == owner */\n      0xffffffffffffffffffffffffffffffffffffffff\n      and\n      eq\n        /* \"Fundme.sol\":2005:2060  require(msg.sender == owner, \"Sender is not the owner\") */\n      tag_36\n      jumpi\n      mload(0x40)\n      0x08c379a000000000000000000000000000000000000000000000000000000000\n      dup2\n      mstore\n      0x04\n      add\n      tag_37\n      swap1\n      tag_38\n      jump\t// in\n    tag_37:\n      mload(0x40)\n      dup1\n      swap2\n      sub\n      swap1\n      revert\n    tag_36:\n        /* \"Fundme.sol\":1032:1051  uint256 funderIndex */\n      0x00\n        /* \"Fundme.sol\":1028:1214  for(uint256 funderIndex = 0; funderIndex < funders.length; funderIndex++) {... */\n    tag_40:\n        /* \"Fundme.sol\":1071:1078  funders */\n      0x01\n        /* \"Fundme.sol\":1071:1085  funders.length */\n      dup1\n      sload\n      swap1\n      pop\n        /* \"Fundme.sol\":1057:1068  funderIndex */\n      dup2\n        /* \"Fundme.sol\":1057:1085  funderIndex < funders.length */\n      lt\n        /* \"Fundme.sol\":1028:1214  for(uint256 funderIndex = 0; funderIndex < funders.length; funderIndex++) {... */\n      iszero\n      tag_41\n      jumpi\n        /* \"Fundme.sol\":1117:1131  address funder */\n      0x00\n        /* \"Fundme.sol\":1134:1141  funders */\n      0x01\n        /* \"Fundme.sol\":1142:1153  funderIndex */\n      dup3\n        /* \"Fundme.sol\":1134:1154  funders[funderIndex] */\n      dup2\n      sload\n      dup2\n      lt\n      tag_43\n      jumpi\n      tag_44\n      tag_45\n      jump\t// in\n    tag_44:\n    tag_43:\n      swap1\n      0x00\n      mstore\n      keccak256(0x00, 0x20)\n      add\n      0x00\n      swap1\n      sload\n      swap1\n      0x0100\n      exp\n      swap1\n      div\n      0xffffffffffffffffffffffffffffffffffffffff\n      and\n        /* \"Fundme.sol\":1117:1154  address funder = funders[funderIndex] */\n      swap1\n      pop\n        /* \"Fundme.sol\":1201:1202  0 */\n      0x00\n        /* \"Fundme.sol\":1169:1190  addressToAmountFunded */\n      0x02\n        /* \"Fundme.sol\":1169:1198  addressToAmountFunded[funder] */\n      0x00\n        /* \"Fundme.sol\":1191:1197  funder */\n      dup4\n        /* \"Fundme.sol\":1169:1198  addressToAmountFunded[funder] */\n      0xffffffffffffffffffffffffffffffffffffffff\n      and\n      0xffffffffffffffffffffffffffffffffffffffff\n      and\n      dup2\n      mstore\n      0x20\n      add\n      swap1\n      dup2\n      mstore\n      0x20\n      add\n      0x00\n      keccak256\n        /* \"Fundme.sol\":1169:1202  addressToAmountFunded[funder] = 0 */\n      dup2\n      swap1\n      sstore\n      pop\n        /* \"Fundme.sol\":1102:1214  {... */\n      pop\n        /* \"Fundme.sol\":1087:1100  funderIndex++ */\n      dup1\n      dup1\n      0x01\n      add\n      swap2\n      pop\n      pop\n        /* \"Fundme.sol\":1028:1214  for(uint256 funderIndex = 0; funderIndex < funders.length; funderIndex++) {... */\n      jump(tag_40)\n    tag_41:\n      pop\n        /* \"Fundme.sol\":1277:1278  0 */\n      0x00\n        /* \"Fundme.sol\":1263:1279  new address[](0) */\n      0xffffffffffffffff\n      dup2\n      gt\n      iszero\n      tag_47\n      jumpi\n      tag_48\n      tag_49\n      jump\t// in\n    tag_48:\n    tag_47:\n      mload(0x40)\n      swap1\n      dup1\n      dup3\n      mstore\n      dup1\n      0x20\n      mul\n      0x20\n      add\n      dup3\n      add\n      0x40\n      mstore\n      dup1\n      iszero\n      tag_50\n      jumpi\n      dup2\n      0x20\n      add\n      0x20\n      dup3\n      mul\n      dup1\n      calldatasize\n      dup4\n      calldatacopy\n      dup1\n      dup3\n      add\n      swap2\n      pop\n      pop\n      swap1\n      pop\n    tag_50:\n      pop\n        /* \"Fundme.sol\":1253:1260  funders */\n      0x01\n        /* \"Fundme.sol\":1253:1279  funders = new address[](0) */\n      swap1\n      dup1\n      mload\n      swap1\n      0x20\n      add\n      swap1\n      tag_51\n      swap3\n      swap2\n      swap1\n      tag_52\n      jump\t// in\n    tag_51:\n      pop\n        /* \"Fundme.sol\":1705:1721  bool callSuccess */\n      0x00\n        /* \"Fundme.sol\":1734:1744  msg.sender */\n      caller\n        /* \"Fundme.sol\":1726:1750  payable(msg.sender).call */\n      0xffffffffffffffffffffffffffffffffffffffff\n      and\n        /* \"Fundme.sol\":1758:1779  address(this).balance */\n      selfbalance\n        /* \"Fundme.sol\":1726:1784  payable(msg.sender).call{value: address(this).balance}(\"\") */\n      mload(0x40)\n      tag_53\n      swap1\n      tag_54\n      jump\t// in\n    tag_53:\n      0x00\n      mload(0x40)\n      dup1\n      dup4\n      sub\n      dup2\n      dup6\n      dup8\n      gas\n      call\n      swap3\n      pop\n      pop\n      pop\n      returndatasize\n      dup1\n      0x00\n      dup2\n      eq\n      tag_57\n      jumpi\n      mload(0x40)\n      swap2\n      pop\n      and(add(returndatasize, 0x3f), not(0x1f))\n      dup3\n      add\n      0x40\n      mstore\n      returndatasize\n      dup3\n      mstore\n      returndatasize\n      0x00\n      0x20\n      dup5\n      add\n      returndatacopy\n      jump(tag_56)\n    tag_57:\n      0x60\n      swap2\n      pop\n    tag_56:\n      pop\n        /* \"Fundme.sol\":1704:1784  (bool callSuccess, )= payable(msg.sender).call{value: address(this).balance}(\"\") */\n      pop\n      swap1\n      pop\n        /* \"Fundme.sol\":1803:1814  callSuccess */\n      dup1\n        /* \"Fundme.sol\":1795:1830  require(callSuccess, \"Call failed\") */\n      tag_58\n      jumpi\n      mload(0x40)\n      0x08c379a000000000000000000000000000000000000000000000000000000000\n      dup2\n      mstore\n      0x04\n      add\n      tag_59\n      swap1\n      tag_60\n      jump\t// in\n    tag_59:\n      mload(0x40)\n      dup1\n      swap2\n      sub\n      swap1\n      revert\n    tag_58:\n        /* \"Fundme.sol\":948:1838  {... */\n      pop\n        /* \"Fundme.sol\":911:1838  function withdraw() public onlyOwner {... */\n      jump\t// out\n        /* \"Fundme.sol\":290:366  mapping(address funder => uint256 amountFunded) public addressToAmountFunded */\n    tag_15:\n      mstore(0x20, 0x02)\n      dup1\n      0x00\n      mstore\n      keccak256(0x00, 0x40)\n      0x00\n      swap2\n      pop\n      swap1\n      pop\n      sload\n      dup2\n      jump\t// out\n        /* \"Fundme.sol\":375:395  address public owner */\n    tag_20:\n      0x03\n      0x00\n      swap1\n      sload\n      swap1\n      0x0100\n      exp\n      swap1\n      div\n      0xffffffffffffffffffffffffffffffffffffffff\n      and\n      dup2\n      jump\t// out\n        /* \"Fundme.sol\":507:903  function fund() public payable{... */\n    tag_24:\n        /* \"Fundme.sol\":669:675  minUSD */\n      sload(0x00)\n        /* \"Fundme.sol\":636:665  msg.value.getConversionRate() */\n      tag_62\n        /* \"Fundme.sol\":636:645  msg.value */\n      callvalue\n        /* \"Fundme.sol\":636:663  msg.value.getConversionRate */\n      tag_63\n        /* \"Fundme.sol\":636:665  msg.value.getConversionRate() */\n      jump\t// in\n    tag_62:\n        /* \"Fundme.sol\":636:675  msg.value.getConversionRate() >= minUSD */\n      lt\n      iszero\n        /* \"Fundme.sol\":628:703  require(msg.value.getConversionRate() >= minUSD, \"Did not send enough ETH\") */\n      tag_64\n      jumpi\n      mload(0x40)\n      0x08c379a000000000000000000000000000000000000000000000000000000000\n      dup2\n      mstore\n      0x04\n      add\n      tag_65\n      swap1\n      tag_66\n      jump\t// in\n    tag_65:\n      mload(0x40)\n      dup1\n      swap2\n      sub\n      swap1\n      revert\n    tag_64:\n        /* \"Fundme.sol\":779:786  funders */\n      0x01\n        /* \"Fundme.sol\":792:802  msg.sender */\n      caller\n        /* \"Fundme.sol\":779:803  funders.push(msg.sender) */\n      swap1\n      dup1\n      0x01\n      dup2\n      sload\n      add\n      dup1\n      dup3\n      sstore\n      dup1\n      swap2\n      pop\n      pop\n      0x01\n      swap1\n      sub\n      swap1\n      0x00\n      mstore\n      keccak256(0x00, 0x20)\n      add\n      0x00\n      swap1\n      swap2\n      swap1\n      swap2\n      swap1\n      swap2\n      0x0100\n      exp\n      dup2\n      sload\n      dup2\n      0xffffffffffffffffffffffffffffffffffffffff\n      mul\n      not\n      and\n      swap1\n      dup4\n      0xffffffffffffffffffffffffffffffffffffffff\n      and\n      mul\n      or\n      swap1\n      sstore\n      pop\n        /* \"Fundme.sol\":886:895  msg.value */\n      callvalue\n        /* \"Fundme.sol\":850:871  addressToAmountFunded */\n      0x02\n        /* \"Fundme.sol\":850:883  addressToAmountFunded[msg.sender] */\n      0x00\n        /* \"Fundme.sol\":872:882  msg.sender */\n      caller\n        /* \"Fundme.sol\":850:883  addressToAmountFunded[msg.sender] */\n      0xffffffffffffffffffffffffffffffffffffffff\n      and\n      0xffffffffffffffffffffffffffffffffffffffff\n      and\n      dup2\n      mstore\n      0x20\n      add\n      swap1\n      dup2\n      mstore\n      0x20\n      add\n      0x00\n      keccak256\n      sload\n        /* \"Fundme.sol\":850:895  addressToAmountFunded[msg.sender] + msg.value */\n      tag_68\n      swap2\n      swap1\n      tag_69\n      jump\t// in\n    tag_68:\n        /* \"Fundme.sol\":814:835  addressToAmountFunded */\n      0x02\n        /* \"Fundme.sol\":814:847  addressToAmountFunded[msg.sender] */\n      0x00\n        /* \"Fundme.sol\":836:846  msg.sender */\n      caller\n        /* \"Fundme.sol\":814:847  addressToAmountFunded[msg.sender] */\n      0xffffffffffffffffffffffffffffffffffffffff\n      and\n      0xffffffffffffffffffffffffffffffffffffffff\n      and\n      dup2\n      mstore\n      0x20\n      add\n      swap1\n      dup2\n      mstore\n      0x20\n      add\n      0x00\n      keccak256\n        /* \"Fundme.sol\":814:895  addressToAmountFunded[msg.sender] = addressToAmountFunded[msg.sender] + msg.value */\n      dup2\n      swap1\n      sstore\n      pop\n        /* \"Fundme.sol\":507:903  function fund() public payable{... */\n      jump\t// out\n        /* \"Fundme.sol\":259:283  address[] public funders */\n    tag_29:\n      0x01\n      dup2\n      dup2\n      sload\n      dup2\n      lt\n      tag_70\n      jumpi\n      0x00\n      dup1\n      revert\n    tag_70:\n      swap1\n      0x00\n      mstore\n      keccak256(0x00, 0x20)\n      add\n      0x00\n      swap2\n      pop\n      sload\n      swap1\n      0x0100\n      exp\n      swap1\n      div\n      0xffffffffffffffffffffffffffffffffffffffff\n      and\n      dup2\n      jump\t// out\n        /* \"Fundme.sol\":182:214  uint256 public minUSD = 5 * 1e10 */\n    tag_33:\n      sload(0x00)\n      dup2\n      jump\t// out\n        /* \"/PriceConverter.sol\":648:1033  function getConversionRate(uint256 ethAmount) internal view returns (uint256){... */\n    tag_63:\n        /* \"/PriceConverter.sol\":717:724  uint256 */\n      0x00\n        /* \"/PriceConverter.sol\":806:822  uint256 ethPrice */\n      dup1\n        /* \"/PriceConverter.sol\":825:835  getPrice() */\n      tag_73\n        /* \"/PriceConverter.sol\":825:833  getPrice */\n      tag_74\n        /* \"/PriceConverter.sol\":825:835  getPrice() */\n      jump\t// in\n    tag_73:\n        /* \"/PriceConverter.sol\":806:835  uint256 ethPrice = getPrice() */\n      swap1\n      pop\n        /* \"/PriceConverter.sol\":939:961  uint256 ethAmountInUSD */\n      0x00\n        /* \"/PriceConverter.sol\":989:993  1e10 */\n      0x02540be400\n        /* \"/PriceConverter.sol\":976:985  ethAmount */\n      dup5\n        /* \"/PriceConverter.sol\":965:973  ethPrice */\n      dup4\n        /* \"/PriceConverter.sol\":965:985  ethPrice * ethAmount */\n      tag_75\n      swap2\n      swap1\n      tag_76\n      jump\t// in\n    tag_75:\n        /* \"/PriceConverter.sol\":964:993  (ethPrice * ethAmount) / 1e10 */\n      tag_77\n      swap2\n      swap1\n      tag_78\n      jump\t// in\n    tag_77:\n        /* \"/PriceConverter.sol\":939:993  uint256 ethAmountInUSD = (ethPrice * ethAmount) / 1e10 */\n      swap1\n      pop\n        /* \"/PriceConverter.sol\":1011:1025  ethAmountInUSD */\n      dup1\n        /* \"/PriceConverter.sol\":1004:1025  return ethAmountInUSD */\n      swap3\n      pop\n      pop\n      pop\n        /* \"/PriceConverter.sol\":648:1033  function getConversionRate(uint256 ethAmount) internal view returns (uint256){... */\n      swap2\n      swap1\n      pop\n      jump\t// out\n        /* \"/PriceConverter.sol\":211:640  function getPrice() internal view returns(uint256) {... */\n    tag_74:\n        /* \"/PriceConverter.sol\":253:260  uint256 */\n      0x00\n        /* \"/PriceConverter.sol\":352:383  AggregatorV3Interface priceFeed */\n      dup1\n        /* \"/PriceConverter.sol\":408:450  0x694AA1769357215DE4FAC081bf1f309aDC325306 */\n      0x694aa1769357215de4fac081bf1f309adc325306\n        /* \"/PriceConverter.sol\":352:451  AggregatorV3Interface priceFeed = AggregatorV3Interface(0x694AA1769357215DE4FAC081bf1f309aDC325306) */\n      swap1\n      pop\n        /* \"/PriceConverter.sol\":466:479  int256 answer */\n      0x00\n        /* \"/PriceConverter.sol\":492:501  priceFeed */\n      dup2\n        /* \"/PriceConverter.sol\":492:517  priceFeed.latestRoundData */\n      0xffffffffffffffffffffffffffffffffffffffff\n      and\n      0xfeaf968c\n        /* \"/PriceConverter.sol\":492:519  priceFeed.latestRoundData() */\n      mload(0x40)\n      dup2\n      0xffffffff\n      and\n      0xe0\n      shl\n      dup2\n      mstore\n      0x04\n      add\n      0xa0\n      mload(0x40)\n      dup1\n      dup4\n      sub\n      dup2\n      dup7\n      gas\n      staticcall\n      iszero\n      dup1\n      iszero\n      tag_81\n      jumpi\n      returndatasize\n      0x00\n      dup1\n      returndatacopy\n      revert(0x00, returndatasize)\n    tag_81:\n      pop\n      pop\n      pop\n      pop\n      mload(0x40)\n      returndatasize\n      not(0x1f)\n      0x1f\n      dup3\n      add\n      and\n      dup3\n      add\n      dup1\n      0x40\n      mstore\n      pop\n      dup2\n      add\n      swap1\n      tag_82\n      swap2\n      swap1\n      tag_83\n      jump\t// in\n    tag_82:\n        /* \"/PriceConverter.sol\":462:519  ( , int256 answer,  ,  ,  ) = priceFeed.latestRoundData() */\n      pop\n      pop\n      pop\n      swap2\n      pop\n      pop\n        /* \"/PriceConverter.sol\":627:631  1e10 */\n      0x02540be400\n        /* \"/PriceConverter.sol\":618:624  answer */\n      dup2\n        /* \"/PriceConverter.sol\":618:631  answer * 1e10 */\n      tag_84\n      swap2\n      swap1\n      tag_85\n      jump\t// in\n    tag_84:\n        /* \"/PriceConverter.sol\":603:632  return uint256(answer * 1e10) */\n      swap3\n      pop\n      pop\n      pop\n        /* \"/PriceConverter.sol\":211:640  function getPrice() internal view returns(uint256) {... */\n      swap1\n      jump\t// out\n    tag_52:\n      dup3\n      dup1\n      sload\n      dup3\n      dup3\n      sstore\n      swap1\n      0x00\n      mstore\n      keccak256(0x00, 0x20)\n      swap1\n      dup2\n      add\n      swap3\n      dup3\n      iszero\n      tag_86\n      jumpi\n      swap2\n      0x20\n      mul\n      dup3\n      add\n    tag_87:\n      dup3\n      dup2\n      gt\n      iszero\n      tag_88\n      jumpi\n      dup3\n      mload\n      dup3\n      exp(0x0100, 0x00)\n      dup2\n      sload\n      dup2\n      0xffffffffffffffffffffffffffffffffffffffff\n      mul\n      not\n      and\n      swap1\n      dup4\n      0xffffffffffffffffffffffffffffffffffffffff\n      and\n      mul\n      or\n      swap1\n      sstore\n      pop\n      swap2\n      0x20\n      add\n      swap2\n      swap1\n      0x01\n      add\n      swap1\n      jump(tag_87)\n    tag_88:\n    tag_86:\n      pop\n      swap1\n      pop\n      tag_89\n      swap2\n      swap1\n      tag_90\n      jump\t// in\n    tag_89:\n      pop\n      swap1\n      jump\t// out\n    tag_90:\n    tag_91:\n      dup1\n      dup3\n      gt\n      iszero\n      tag_92\n      jumpi\n      0x00\n      dup2\n      0x00\n      swap1\n      sstore\n      pop\n      0x01\n      add\n      jump(tag_91)\n    tag_92:\n      pop\n      swap1\n      jump\t// out\n        /* \"#utility.yul\":88:205   */\n    tag_94:\n        /* \"#utility.yul\":197:198   */\n      0x00\n        /* \"#utility.yul\":194:195   */\n      dup1\n        /* \"#utility.yul\":187:199   */\n      revert\n        /* \"#utility.yul\":334:460   */\n    tag_96:\n        /* \"#utility.yul\":371:378   */\n      0x00\n        /* \"#utility.yul\":411:453   */\n      0xffffffffffffffffffffffffffffffffffffffff\n        /* \"#utility.yul\":404:409   */\n      dup3\n        /* \"#utility.yul\":400:454   */\n      and\n        /* \"#utility.yul\":389:454   */\n      swap1\n      pop\n        /* \"#utility.yul\":334:460   */\n      swap2\n      swap1\n      pop\n      jump\t// out\n        /* \"#utility.yul\":466:562   */\n    tag_97:\n        /* \"#utility.yul\":503:510   */\n      0x00\n        /* \"#utility.yul\":532:556   */\n      tag_130\n        /* \"#utility.yul\":550:555   */\n      dup3\n        /* \"#utility.yul\":532:556   */\n      tag_96\n      jump\t// in\n    tag_130:\n        /* \"#utility.yul\":521:556   */\n      swap1\n      pop\n        /* \"#utility.yul\":466:562   */\n      swap2\n      swap1\n      pop\n      jump\t// out\n        /* \"#utility.yul\":568:690   */\n    tag_98:\n        /* \"#utility.yul\":641:665   */\n      tag_132\n        /* \"#utility.yul\":659:664   */\n      dup2\n        /* \"#utility.yul\":641:665   */\n      tag_97\n      jump\t// in\n    tag_132:\n        /* \"#utility.yul\":634:639   */\n      dup2\n        /* \"#utility.yul\":631:666   */\n      eq\n        /* \"#utility.yul\":621:684   */\n      tag_133\n      jumpi\n        /* \"#utility.yul\":680:681   */\n      0x00\n        /* \"#utility.yul\":677:678   */\n      dup1\n        /* \"#utility.yul\":670:682   */\n      revert\n        /* \"#utility.yul\":621:684   */\n    tag_133:\n        /* \"#utility.yul\":568:690   */\n      pop\n      jump\t// out\n        /* \"#utility.yul\":696:835   */\n    tag_99:\n        /* \"#utility.yul\":742:747   */\n      0x00\n        /* \"#utility.yul\":780:786   */\n      dup2\n        /* \"#utility.yul\":767:787   */\n      calldataload\n        /* \"#utility.yul\":758:787   */\n      swap1\n      pop\n        /* \"#utility.yul\":796:829   */\n      tag_135\n        /* \"#utility.yul\":823:828   */\n      dup2\n        /* \"#utility.yul\":796:829   */\n      tag_98\n      jump\t// in\n    tag_135:\n        /* \"#utility.yul\":696:835   */\n      swap3\n      swap2\n      pop\n      pop\n      jump\t// out\n        /* \"#utility.yul\":841:1170   */\n    tag_14:\n        /* \"#utility.yul\":900:906   */\n      0x00\n        /* \"#utility.yul\":949:951   */\n      0x20\n        /* \"#utility.yul\":937:946   */\n      dup3\n        /* \"#utility.yul\":928:935   */\n      dup5\n        /* \"#utility.yul\":924:947   */\n      sub\n        /* \"#utility.yul\":920:952   */\n      slt\n        /* \"#utility.yul\":917:1036   */\n      iszero\n      tag_137\n      jumpi\n        /* \"#utility.yul\":955:1034   */\n      tag_138\n      tag_94\n      jump\t// in\n    tag_138:\n        /* \"#utility.yul\":917:1036   */\n    tag_137:\n        /* \"#utility.yul\":1075:1076   */\n      0x00\n        /* \"#utility.yul\":1100:1153   */\n      tag_139\n        /* \"#utility.yul\":1145:1152   */\n      dup5\n        /* \"#utility.yul\":1136:1142   */\n      dup3\n        /* \"#utility.yul\":1125:1134   */\n      dup6\n        /* \"#utility.yul\":1121:1143   */\n      add\n        /* \"#utility.yul\":1100:1153   */\n      tag_99\n      jump\t// in\n    tag_139:\n        /* \"#utility.yul\":1090:1153   */\n      swap2\n      pop\n        /* \"#utility.yul\":1046:1163   */\n      pop\n        /* \"#utility.yul\":841:1170   */\n      swap3\n      swap2\n      pop\n      pop\n      jump\t// out\n        /* \"#utility.yul\":1176:1253   */\n    tag_100:\n        /* \"#utility.yul\":1213:1220   */\n      0x00\n        /* \"#utility.yul\":1242:1247   */\n      dup2\n        /* \"#utility.yul\":1231:1247   */\n      swap1\n      pop\n        /* \"#utility.yul\":1176:1253   */\n      swap2\n      swap1\n      pop\n      jump\t// out\n        /* \"#utility.yul\":1259:1377   */\n    tag_101:\n        /* \"#utility.yul\":1346:1370   */\n      tag_142\n        /* \"#utility.yul\":1364:1369   */\n      dup2\n        /* \"#utility.yul\":1346:1370   */\n      tag_100\n      jump\t// in\n    tag_142:\n        /* \"#utility.yul\":1341:1344   */\n      dup3\n        /* \"#utility.yul\":1334:1371   */\n      mstore\n        /* \"#utility.yul\":1259:1377   */\n      pop\n      pop\n      jump\t// out\n        /* \"#utility.yul\":1383:1605   */\n    tag_17:\n        /* \"#utility.yul\":1476:1480   */\n      0x00\n        /* \"#utility.yul\":1514:1516   */\n      0x20\n        /* \"#utility.yul\":1503:1512   */\n      dup3\n        /* \"#utility.yul\":1499:1517   */\n      add\n        /* \"#utility.yul\":1491:1517   */\n      swap1\n      pop\n        /* \"#utility.yul\":1527:1598   */\n      tag_144\n        /* \"#utility.yul\":1595:1596   */\n      0x00\n        /* \"#utility.yul\":1584:1593   */\n      dup4\n        /* \"#utility.yul\":1580:1597   */\n      add\n        /* \"#utility.yul\":1571:1577   */\n      dup5\n        /* \"#utility.yul\":1527:1598   */\n      tag_101\n      jump\t// in\n    tag_144:\n        /* \"#utility.yul\":1383:1605   */\n      swap3\n      swap2\n      pop\n      pop\n      jump\t// out\n        /* \"#utility.yul\":1611:1729   */\n    tag_102:\n        /* \"#utility.yul\":1698:1722   */\n      tag_146\n        /* \"#utility.yul\":1716:1721   */\n      dup2\n        /* \"#utility.yul\":1698:1722   */\n      tag_97\n      jump\t// in\n    tag_146:\n        /* \"#utility.yul\":1693:1696   */\n      dup3\n        /* \"#utility.yul\":1686:1723   */\n      mstore\n        /* \"#utility.yul\":1611:1729   */\n      pop\n      pop\n      jump\t// out\n        /* \"#utility.yul\":1735:1957   */\n    tag_22:\n        /* \"#utility.yul\":1828:1832   */\n      0x00\n        /* \"#utility.yul\":1866:1868   */\n      0x20\n        /* \"#utility.yul\":1855:1864   */\n      dup3\n        /* \"#utility.yul\":1851:1869   */\n      add\n        /* \"#utility.yul\":1843:1869   */\n      swap1\n      pop\n        /* \"#utility.yul\":1879:1950   */\n      tag_148\n        /* \"#utility.yul\":1947:1948   */\n      0x00\n        /* \"#utility.yul\":1936:1945   */\n      dup4\n        /* \"#utility.yul\":1932:1949   */\n      add\n        /* \"#utility.yul\":1923:1929   */\n      dup5\n        /* \"#utility.yul\":1879:1950   */\n      tag_102\n      jump\t// in\n    tag_148:\n        /* \"#utility.yul\":1735:1957   */\n      swap3\n      swap2\n      pop\n      pop\n      jump\t// out\n        /* \"#utility.yul\":1963:2085   */\n    tag_103:\n        /* \"#utility.yul\":2036:2060   */\n      tag_150\n        /* \"#utility.yul\":2054:2059   */\n      dup2\n        /* \"#utility.yul\":2036:2060   */\n      tag_100\n      jump\t// in\n    tag_150:\n        /* \"#utility.yul\":2029:2034   */\n      dup2\n        /* \"#utility.yul\":2026:2061   */\n      eq\n        /* \"#utility.yul\":2016:2079   */\n      tag_151\n      jumpi\n        /* \"#utility.yul\":2075:2076   */\n      0x00\n        /* \"#utility.yul\":2072:2073   */\n      dup1\n        /* \"#utility.yul\":2065:2077   */\n      revert\n        /* \"#utility.yul\":2016:2079   */\n    tag_151:\n        /* \"#utility.yul\":1963:2085   */\n      pop\n      jump\t// out\n        /* \"#utility.yul\":2091:2230   */\n    tag_104:\n        /* \"#utility.yul\":2137:2142   */\n      0x00\n        /* \"#utility.yul\":2175:2181   */\n      dup2\n        /* \"#utility.yul\":2162:2182   */\n      calldataload\n        /* \"#utility.yul\":2153:2182   */\n      swap1\n      pop\n        /* \"#utility.yul\":2191:2224   */\n      tag_153\n        /* \"#utility.yul\":2218:2223   */\n      dup2\n        /* \"#utility.yul\":2191:2224   */\n      tag_103\n      jump\t// in\n    tag_153:\n        /* \"#utility.yul\":2091:2230   */\n      swap3\n      swap2\n      pop\n      pop\n      jump\t// out\n        /* \"#utility.yul\":2236:2565   */\n    tag_28:\n        /* \"#utility.yul\":2295:2301   */\n      0x00\n        /* \"#utility.yul\":2344:2346   */\n      0x20\n        /* \"#utility.yul\":2332:2341   */\n      dup3\n        /* \"#utility.yul\":2323:2330   */\n      dup5\n        /* \"#utility.yul\":2319:2342   */\n      sub\n        /* \"#utility.yul\":2315:2347   */\n      slt\n        /* \"#utility.yul\":2312:2431   */\n      iszero\n      tag_155\n      jumpi\n        /* \"#utility.yul\":2350:2429   */\n      tag_156\n      tag_94\n      jump\t// in\n    tag_156:\n        /* \"#utility.yul\":2312:2431   */\n    tag_155:\n        /* \"#utility.yul\":2470:2471   */\n      0x00\n        /* \"#utility.yul\":2495:2548   */\n      tag_157\n        /* \"#utility.yul\":2540:2547   */\n      dup5\n        /* \"#utility.yul\":2531:2537   */\n      dup3\n        /* \"#utility.yul\":2520:2529   */\n      dup6\n        /* \"#utility.yul\":2516:2538   */\n      add\n        /* \"#utility.yul\":2495:2548   */\n      tag_104\n      jump\t// in\n    tag_157:\n        /* \"#utility.yul\":2485:2548   */\n      swap2\n      pop\n        /* \"#utility.yul\":2441:2558   */\n      pop\n        /* \"#utility.yul\":2236:2565   */\n      swap3\n      swap2\n      pop\n      pop\n      jump\t// out\n        /* \"#utility.yul\":2571:2740   */\n    tag_105:\n        /* \"#utility.yul\":2655:2666   */\n      0x00\n        /* \"#utility.yul\":2689:2695   */\n      dup3\n        /* \"#utility.yul\":2684:2687   */\n      dup3\n        /* \"#utility.yul\":2677:2696   */\n      mstore\n        /* \"#utility.yul\":2729:2733   */\n      0x20\n        /* \"#utility.yul\":2724:2727   */\n      dup3\n        /* \"#utility.yul\":2720:2734   */\n      add\n        /* \"#utility.yul\":2705:2734   */\n      swap1\n      pop\n        /* \"#utility.yul\":2571:2740   */\n      swap3\n      swap2\n      pop\n      pop\n      jump\t// out\n        /* \"#utility.yul\":2746:2919   */\n    tag_106:\n        /* \"#utility.yul\":2886:2911   */\n      0x53656e646572206973206e6f7420746865206f776e6572000000000000000000\n        /* \"#utility.yul\":2882:2883   */\n      0x00\n        /* \"#utility.yul\":2874:2880   */\n      dup3\n        /* \"#utility.yul\":2870:2884   */\n      add\n        /* \"#utility.yul\":2863:2912   */\n      mstore\n        /* \"#utility.yul\":2746:2919   */\n      pop\n      jump\t// out\n        /* \"#utility.yul\":2925:3291   */\n    tag_107:\n        /* \"#utility.yul\":3067:3070   */\n      0x00\n        /* \"#utility.yul\":3088:3155   */\n      tag_161\n        /* \"#utility.yul\":3152:3154   */\n      0x17\n        /* \"#utility.yul\":3147:3150   */\n      dup4\n        /* \"#utility.yul\":3088:3155   */\n      tag_105\n      jump\t// in\n    tag_161:\n        /* \"#utility.yul\":3081:3155   */\n      swap2\n      pop\n        /* \"#utility.yul\":3164:3257   */\n      tag_162\n        /* \"#utility.yul\":3253:3256   */\n      dup3\n        /* \"#utility.yul\":3164:3257   */\n      tag_106\n      jump\t// in\n    tag_162:\n        /* \"#utility.yul\":3282:3284   */\n      0x20\n        /* \"#utility.yul\":3277:3280   */\n      dup3\n        /* \"#utility.yul\":3273:3285   */\n      add\n        /* \"#utility.yul\":3266:3285   */\n      swap1\n      pop\n        /* \"#utility.yul\":2925:3291   */\n      swap2\n      swap1\n      pop\n      jump\t// out\n        /* \"#utility.yul\":3297:3716   */\n    tag_38:\n        /* \"#utility.yul\":3463:3467   */\n      0x00\n        /* \"#utility.yul\":3501:3503   */\n      0x20\n        /* \"#utility.yul\":3490:3499   */\n      dup3\n        /* \"#utility.yul\":3486:3504   */\n      add\n        /* \"#utility.yul\":3478:3504   */\n      swap1\n      pop\n        /* \"#utility.yul\":3550:3559   */\n      dup2\n        /* \"#utility.yul\":3544:3548   */\n      dup2\n        /* \"#utility.yul\":3540:3560   */\n      sub\n        /* \"#utility.yul\":3536:3537   */\n      0x00\n        /* \"#utility.yul\":3525:3534   */\n      dup4\n        /* \"#utility.yul\":3521:3538   */\n      add\n        /* \"#utility.yul\":3514:3561   */\n      mstore\n        /* \"#utility.yul\":3578:3709   */\n      tag_164\n        /* \"#utility.yul\":3704:3708   */\n      dup2\n        /* \"#utility.yul\":3578:3709   */\n      tag_107\n      jump\t// in\n    tag_164:\n        /* \"#utility.yul\":3570:3709   */\n      swap1\n      pop\n        /* \"#utility.yul\":3297:3716   */\n      swap2\n      swap1\n      pop\n      jump\t// out\n        /* \"#utility.yul\":3722:3902   */\n    tag_45:\n        /* \"#utility.yul\":3770:3847   */\n      0x4e487b7100000000000000000000000000000000000000000000000000000000\n        /* \"#utility.yul\":3767:3768   */\n      0x00\n        /* \"#utility.yul\":3760:3848   */\n      mstore\n        /* \"#utility.yul\":3867:3871   */\n      0x32\n        /* \"#utility.yul\":3864:3865   */\n      0x04\n        /* \"#utility.yul\":3857:3872   */\n      mstore\n        /* \"#utility.yul\":3891:3895   */\n      0x24\n        /* \"#utility.yul\":3888:3889   */\n      0x00\n        /* \"#utility.yul\":3881:3896   */\n      revert\n        /* \"#utility.yul\":3908:4088   */\n    tag_49:\n        /* \"#utility.yul\":3956:4033   */\n      0x4e487b7100000000000000000000000000000000000000000000000000000000\n        /* \"#utility.yul\":3953:3954   */\n      0x00\n        /* \"#utility.yul\":3946:4034   */\n      mstore\n        /* \"#utility.yul\":4053:4057   */\n      0x41\n        /* \"#utility.yul\":4050:4051   */\n      0x04\n        /* \"#utility.yul\":4043:4058   */\n      mstore\n        /* \"#utility.yul\":4077:4081   */\n      0x24\n        /* \"#utility.yul\":4074:4075   */\n      0x00\n        /* \"#utility.yul\":4067:4082   */\n      revert\n        /* \"#utility.yul\":4094:4241   */\n    tag_108:\n        /* \"#utility.yul\":4195:4206   */\n      0x00\n        /* \"#utility.yul\":4232:4235   */\n      dup2\n        /* \"#utility.yul\":4217:4235   */\n      swap1\n      pop\n        /* \"#utility.yul\":4094:4241   */\n      swap3\n      swap2\n      pop\n      pop\n      jump\t// out\n        /* \"#utility.yul\":4247:4361   */\n    tag_109:\n      pop\n      jump\t// out\n        /* \"#utility.yul\":4367:4765   */\n    tag_110:\n        /* \"#utility.yul\":4526:4529   */\n      0x00\n        /* \"#utility.yul\":4547:4630   */\n      tag_170\n        /* \"#utility.yul\":4628:4629   */\n      0x00\n        /* \"#utility.yul\":4623:4626   */\n      dup4\n        /* \"#utility.yul\":4547:4630   */\n      tag_108\n      jump\t// in\n    tag_170:\n        /* \"#utility.yul\":4540:4630   */\n      swap2\n      pop\n        /* \"#utility.yul\":4639:4732   */\n      tag_171\n        /* \"#utility.yul\":4728:4731   */\n      dup3\n        /* \"#utility.yul\":4639:4732   */\n      tag_109\n      jump\t// in\n    tag_171:\n        /* \"#utility.yul\":4757:4758   */\n      0x00\n        /* \"#utility.yul\":4752:4755   */\n      dup3\n        /* \"#utility.yul\":4748:4759   */\n      add\n        /* \"#utility.yul\":4741:4759   */\n      swap1\n      pop\n        /* \"#utility.yul\":4367:4765   */\n      swap2\n      swap1\n      pop\n      jump\t// out\n        /* \"#utility.yul\":4771:5150   */\n    tag_54:\n        /* \"#utility.yul\":4955:4958   */\n      0x00\n        /* \"#utility.yul\":4977:5124   */\n      tag_173\n        /* \"#utility.yul\":5120:5123   */\n      dup3\n        /* \"#utility.yul\":4977:5124   */\n      tag_110\n      jump\t// in\n    tag_173:\n        /* \"#utility.yul\":4970:5124   */\n      swap2\n      pop\n        /* \"#utility.yul\":5141:5144   */\n      dup2\n        /* \"#utility.yul\":5134:5144   */\n      swap1\n      pop\n        /* \"#utility.yul\":4771:5150   */\n      swap2\n      swap1\n      pop\n      jump\t// out\n        /* \"#utility.yul\":5156:5317   */\n    tag_111:\n        /* \"#utility.yul\":5296:5309   */\n      0x43616c6c206661696c6564000000000000000000000000000000000000000000\n        /* \"#utility.yul\":5292:5293   */\n      0x00\n        /* \"#utility.yul\":5284:5290   */\n      dup3\n        /* \"#utility.yul\":5280:5294   */\n      add\n        /* \"#utility.yul\":5273:5310   */\n      mstore\n        /* \"#utility.yul\":5156:5317   */\n      pop\n      jump\t// out\n        /* \"#utility.yul\":5323:5689   */\n    tag_112:\n        /* \"#utility.yul\":5465:5468   */\n      0x00\n        /* \"#utility.yul\":5486:5553   */\n      tag_176\n        /* \"#utility.yul\":5550:5552   */\n      0x0b\n        /* \"#utility.yul\":5545:5548   */\n      dup4\n        /* \"#utility.yul\":5486:5553   */\n      tag_105\n      jump\t// in\n    tag_176:\n        /* \"#utility.yul\":5479:5553   */\n      swap2\n      pop\n        /* \"#utility.yul\":5562:5655   */\n      tag_177\n        /* \"#utility.yul\":5651:5654   */\n      dup3\n        /* \"#utility.yul\":5562:5655   */\n      tag_111\n      jump\t// in\n    tag_177:\n        /* \"#utility.yul\":5680:5682   */\n      0x20\n        /* \"#utility.yul\":5675:5678   */\n      dup3\n        /* \"#utility.yul\":5671:5683   */\n      add\n        /* \"#utility.yul\":5664:5683   */\n      swap1\n      pop\n        /* \"#utility.yul\":5323:5689   */\n      swap2\n      swap1\n      pop\n      jump\t// out\n        /* \"#utility.yul\":5695:6114   */\n    tag_60:\n        /* \"#utility.yul\":5861:5865   */\n      0x00\n        /* \"#utility.yul\":5899:5901   */\n      0x20\n        /* \"#utility.yul\":5888:5897   */\n      dup3\n        /* \"#utility.yul\":5884:5902   */\n      add\n        /* \"#utility.yul\":5876:5902   */\n      swap1\n      pop\n        /* \"#utility.yul\":5948:5957   */\n      dup2\n        /* \"#utility.yul\":5942:5946   */\n      dup2\n        /* \"#utility.yul\":5938:5958   */\n      sub\n        /* \"#utility.yul\":5934:5935   */\n      0x00\n        /* \"#utility.yul\":5923:5932   */\n      dup4\n        /* \"#utility.yul\":5919:5936   */\n      add\n        /* \"#utility.yul\":5912:5959   */\n      mstore\n        /* \"#utility.yul\":5976:6107   */\n      tag_179\n        /* \"#utility.yul\":6102:6106   */\n      dup2\n        /* \"#utility.yul\":5976:6107   */\n      tag_112\n      jump\t// in\n    tag_179:\n        /* \"#utility.yul\":5968:6107   */\n      swap1\n      pop\n        /* \"#utility.yul\":5695:6114   */\n      swap2\n      swap1\n      pop\n      jump\t// out\n        /* \"#utility.yul\":6120:6293   */\n    tag_113:\n        /* \"#utility.yul\":6260:6285   */\n      0x446964206e6f742073656e6420656e6f75676820455448000000000000000000\n        /* \"#utility.yul\":6256:6257   */\n      0x00\n        /* \"#utility.yul\":6248:6254   */\n      dup3\n        /* \"#utility.yul\":6244:6258   */\n      add\n        /* \"#utility.yul\":6237:6286   */\n      mstore\n        /* \"#utility.yul\":6120:6293   */\n      pop\n      jump\t// out\n        /* \"#utility.yul\":6299:6665   */\n    tag_114:\n        /* \"#utility.yul\":6441:6444   */\n      0x00\n        /* \"#utility.yul\":6462:6529   */\n      tag_182\n        /* \"#utility.yul\":6526:6528   */\n      0x17\n        /* \"#utility.yul\":6521:6524   */\n      dup4\n        /* \"#utility.yul\":6462:6529   */\n      tag_105\n      jump\t// in\n    tag_182:\n        /* \"#utility.yul\":6455:6529   */\n      swap2\n      pop\n        /* \"#utility.yul\":6538:6631   */\n      tag_183\n        /* \"#utility.yul\":6627:6630   */\n      dup3\n        /* \"#utility.yul\":6538:6631   */\n      tag_113\n      jump\t// in\n    tag_183:\n        /* \"#utility.yul\":6656:6658   */\n      0x20\n        /* \"#utility.yul\":6651:6654   */\n      dup3\n        /* \"#utility.yul\":6647:6659   */\n      add\n        /* \"#utility.yul\":6640:6659   */\n      swap1\n      pop\n        /* \"#utility.yul\":6299:6665   */\n      swap2\n      swap1\n      pop\n      jump\t// out\n        /* \"#utility.yul\":6671:7090   */\n    tag_66:\n        /* \"#utility.yul\":6837:6841   */\n      0x00\n        /* \"#utility.yul\":6875:6877   */\n      0x20\n        /* \"#utility.yul\":6864:6873   */\n      dup3\n        /* \"#utility.yul\":6860:6878   */\n      add\n        /* \"#utility.yul\":6852:6878   */\n      swap1\n      pop\n        /* \"#utility.yul\":6924:6933   */\n      dup2\n        /* \"#utility.yul\":6918:6922   */\n      dup2\n        /* \"#utility.yul\":6914:6934   */\n      sub\n        /* \"#utility.yul\":6910:6911   */\n      0x00\n        /* \"#utility.yul\":6899:6908   */\n      dup4\n        /* \"#utility.yul\":6895:6912   */\n      add\n        /* \"#utility.yul\":6888:6935   */\n      mstore\n        /* \"#utility.yul\":6952:7083   */\n      tag_185\n        /* \"#utility.yul\":7078:7082   */\n      dup2\n        /* \"#utility.yul\":6952:7083   */\n      tag_114\n      jump\t// in\n    tag_185:\n        /* \"#utility.yul\":6944:7083   */\n      swap1\n      pop\n        /* \"#utility.yul\":6671:7090   */\n      swap2\n      swap1\n      pop\n      jump\t// out\n        /* \"#utility.yul\":7096:7276   */\n    tag_115:\n        /* \"#utility.yul\":7144:7221   */\n      0x4e487b7100000000000000000000000000000000000000000000000000000000\n        /* \"#utility.yul\":7141:7142   */\n      0x00\n        /* \"#utility.yul\":7134:7222   */\n      mstore\n        /* \"#utility.yul\":7241:7245   */\n      0x11\n        /* \"#utility.yul\":7238:7239   */\n      0x04\n        /* \"#utility.yul\":7231:7246   */\n      mstore\n        /* \"#utility.yul\":7265:7269   */\n      0x24\n        /* \"#utility.yul\":7262:7263   */\n      0x00\n        /* \"#utility.yul\":7255:7270   */\n      revert\n        /* \"#utility.yul\":7282:7473   */\n    tag_69:\n        /* \"#utility.yul\":7322:7325   */\n      0x00\n        /* \"#utility.yul\":7341:7361   */\n      tag_188\n        /* \"#utility.yul\":7359:7360   */\n      dup3\n        /* \"#utility.yul\":7341:7361   */\n      tag_100\n      jump\t// in\n    tag_188:\n        /* \"#utility.yul\":7336:7361   */\n      swap2\n      pop\n        /* \"#utility.yul\":7375:7395   */\n      tag_189\n        /* \"#utility.yul\":7393:7394   */\n      dup4\n        /* \"#utility.yul\":7375:7395   */\n      tag_100\n      jump\t// in\n    tag_189:\n        /* \"#utility.yul\":7370:7395   */\n      swap3\n      pop\n        /* \"#utility.yul\":7418:7419   */\n      dup3\n        /* \"#utility.yul\":7415:7416   */\n      dup3\n        /* \"#utility.yul\":7411:7420   */\n      add\n        /* \"#utility.yul\":7404:7420   */\n      swap1\n      pop\n        /* \"#utility.yul\":7439:7442   */\n      dup1\n        /* \"#utility.yul\":7436:7437   */\n      dup3\n        /* \"#utility.yul\":7433:7443   */\n      gt\n        /* \"#utility.yul\":7430:7466   */\n      iszero\n      tag_190\n      jumpi\n        /* \"#utility.yul\":7446:7464   */\n      tag_191\n      tag_115\n      jump\t// in\n    tag_191:\n        /* \"#utility.yul\":7430:7466   */\n    tag_190:\n        /* \"#utility.yul\":7282:7473   */\n      swap3\n      swap2\n      pop\n      pop\n      jump\t// out\n        /* \"#utility.yul\":7479:7889   */\n    tag_76:\n        /* \"#utility.yul\":7519:7526   */\n      0x00\n        /* \"#utility.yul\":7542:7562   */\n      tag_193\n        /* \"#utility.yul\":7560:7561   */\n      dup3\n        /* \"#utility.yul\":7542:7562   */\n      tag_100\n      jump\t// in\n    tag_193:\n        /* \"#utility.yul\":7537:7562   */\n      swap2\n      pop\n        /* \"#utility.yul\":7576:7596   */\n      tag_194\n        /* \"#utility.yul\":7594:7595   */\n      dup4\n        /* \"#utility.yul\":7576:7596   */\n      tag_100\n      jump\t// in\n    tag_194:\n        /* \"#utility.yul\":7571:7596   */\n      swap3\n      pop\n        /* \"#utility.yul\":7631:7632   */\n      dup3\n        /* \"#utility.yul\":7628:7629   */\n      dup3\n        /* \"#utility.yul\":7624:7633   */\n      mul\n        /* \"#utility.yul\":7653:7683   */\n      tag_195\n        /* \"#utility.yul\":7671:7682   */\n      dup2\n        /* \"#utility.yul\":7653:7683   */\n      tag_100\n      jump\t// in\n    tag_195:\n        /* \"#utility.yul\":7642:7683   */\n      swap2\n      pop\n        /* \"#utility.yul\":7832:7833   */\n      dup3\n        /* \"#utility.yul\":7823:7830   */\n      dup3\n        /* \"#utility.yul\":7819:7834   */\n      div\n        /* \"#utility.yul\":7816:7817   */\n      dup5\n        /* \"#utility.yul\":7813:7835   */\n      eq\n        /* \"#utility.yul\":7793:7794   */\n      dup4\n        /* \"#utility.yul\":7786:7795   */\n      iszero\n        /* \"#utility.yul\":7766:7849   */\n      or\n        /* \"#utility.yul\":7743:7882   */\n      tag_196\n      jumpi\n        /* \"#utility.yul\":7862:7880   */\n      tag_197\n      tag_115\n      jump\t// in\n    tag_197:\n        /* \"#utility.yul\":7743:7882   */\n    tag_196:\n        /* \"#utility.yul\":7527:7889   */\n      pop\n        /* \"#utility.yul\":7479:7889   */\n      swap3\n      swap2\n      pop\n      pop\n      jump\t// out\n        /* \"#utility.yul\":7895:8075   */\n    tag_116:\n        /* \"#utility.yul\":7943:8020   */\n      0x4e487b7100000000000000000000000000000000000000000000000000000000\n        /* \"#utility.yul\":7940:7941   */\n      0x00\n        /* \"#utility.yul\":7933:8021   */\n      mstore\n        /* \"#utility.yul\":8040:8044   */\n      0x12\n        /* \"#utility.yul\":8037:8038   */\n      0x04\n        /* \"#utility.yul\":8030:8045   */\n      mstore\n        /* \"#utility.yul\":8064:8068   */\n      0x24\n        /* \"#utility.yul\":8061:8062   */\n      0x00\n        /* \"#utility.yul\":8054:8069   */\n      revert\n        /* \"#utility.yul\":8081:8266   */\n    tag_78:\n        /* \"#utility.yul\":8121:8122   */\n      0x00\n        /* \"#utility.yul\":8138:8158   */\n      tag_200\n        /* \"#utility.yul\":8156:8157   */\n      dup3\n        /* \"#utility.yul\":8138:8158   */\n      tag_100\n      jump\t// in\n    tag_200:\n        /* \"#utility.yul\":8133:8158   */\n      swap2\n      pop\n        /* \"#utility.yul\":8172:8192   */\n      tag_201\n        /* \"#utility.yul\":8190:8191   */\n      dup4\n        /* \"#utility.yul\":8172:8192   */\n      tag_100\n      jump\t// in\n    tag_201:\n        /* \"#utility.yul\":8167:8192   */\n      swap3\n      pop\n        /* \"#utility.yul\":8211:8212   */\n      dup3\n        /* \"#utility.yul\":8201:8236   */\n      tag_202\n      jumpi\n        /* \"#utility.yul\":8216:8234   */\n      tag_203\n      tag_116\n      jump\t// in\n    tag_203:\n        /* \"#utility.yul\":8201:8236   */\n    tag_202:\n        /* \"#utility.yul\":8258:8259   */\n      dup3\n        /* \"#utility.yul\":8255:8256   */\n      dup3\n        /* \"#utility.yul\":8251:8260   */\n      div\n        /* \"#utility.yul\":8246:8260   */\n      swap1\n      pop\n        /* \"#utility.yul\":8081:8266   */\n      swap3\n      swap2\n      pop\n      pop\n      jump\t// out\n        /* \"#utility.yul\":8272:8377   */\n    tag_117:\n        /* \"#utility.yul\":8308:8315   */\n      0x00\n        /* \"#utility.yul\":8348:8370   */\n      0xffffffffffffffffffff\n        /* \"#utility.yul\":8341:8346   */\n      dup3\n        /* \"#utility.yul\":8337:8371   */\n      and\n        /* \"#utility.yul\":8326:8371   */\n      swap1\n      pop\n        /* \"#utility.yul\":8272:8377   */\n      swap2\n      swap1\n      pop\n      jump\t// out\n        /* \"#utility.yul\":8383:8503   */\n    tag_118:\n        /* \"#utility.yul\":8455:8478   */\n      tag_206\n        /* \"#utility.yul\":8472:8477   */\n      dup2\n        /* \"#utility.yul\":8455:8478   */\n      tag_117\n      jump\t// in\n    tag_206:\n        /* \"#utility.yul\":8448:8453   */\n      dup2\n        /* \"#utility.yul\":8445:8479   */\n      eq\n        /* \"#utility.yul\":8435:8497   */\n      tag_207\n      jumpi\n        /* \"#utility.yul\":8493:8494   */\n      0x00\n        /* \"#utility.yul\":8490:8491   */\n      dup1\n        /* \"#utility.yul\":8483:8495   */\n      revert\n        /* \"#utility.yul\":8435:8497   */\n    tag_207:\n        /* \"#utility.yul\":8383:8503   */\n      pop\n      jump\t// out\n        /* \"#utility.yul\":8509:8650   */\n    tag_119:\n        /* \"#utility.yul\":8565:8570   */\n      0x00\n        /* \"#utility.yul\":8596:8602   */\n      dup2\n        /* \"#utility.yul\":8590:8603   */\n      mload\n        /* \"#utility.yul\":8581:8603   */\n      swap1\n      pop\n        /* \"#utility.yul\":8612:8644   */\n      tag_209\n        /* \"#utility.yul\":8638:8643   */\n      dup2\n        /* \"#utility.yul\":8612:8644   */\n      tag_118\n      jump\t// in\n    tag_209:\n        /* \"#utility.yul\":8509:8650   */\n      swap3\n      swap2\n      pop\n      pop\n      jump\t// out\n        /* \"#utility.yul\":8656:8732   */\n    tag_120:\n        /* \"#utility.yul\":8692:8699   */\n      0x00\n        /* \"#utility.yul\":8721:8726   */\n      dup2\n        /* \"#utility.yul\":8710:8726   */\n      swap1\n      pop\n        /* \"#utility.yul\":8656:8732   */\n      swap2\n      swap1\n      pop\n      jump\t// out\n        /* \"#utility.yul\":8738:8858   */\n    tag_121:\n        /* \"#utility.yul\":8810:8833   */\n      tag_212\n        /* \"#utility.yul\":8827:8832   */\n      dup2\n        /* \"#utility.yul\":8810:8833   */\n      tag_120\n      jump\t// in\n    tag_212:\n        /* \"#utility.yul\":8803:8808   */\n      dup2\n        /* \"#utility.yul\":8800:8834   */\n      eq\n        /* \"#utility.yul\":8790:8852   */\n      tag_213\n      jumpi\n        /* \"#utility.yul\":8848:8849   */\n      0x00\n        /* \"#utility.yul\":8845:8846   */\n      dup1\n        /* \"#utility.yul\":8838:8850   */\n      revert\n        /* \"#utility.yul\":8790:8852   */\n    tag_213:\n        /* \"#utility.yul\":8738:8858   */\n      pop\n      jump\t// out\n        /* \"#utility.yul\":8864:9005   */\n    tag_122:\n        /* \"#utility.yul\":8920:8925   */\n      0x00\n        /* \"#utility.yul\":8951:8957   */\n      dup2\n        /* \"#utility.yul\":8945:8958   */\n      mload\n        /* \"#utility.yul\":8936:8958   */\n      swap1\n      pop\n        /* \"#utility.yul\":8967:8999   */\n      tag_215\n        /* \"#utility.yul\":8993:8998   */\n      dup2\n        /* \"#utility.yul\":8967:8999   */\n      tag_121\n      jump\t// in\n    tag_215:\n        /* \"#utility.yul\":8864:9005   */\n      swap3\n      swap2\n      pop\n      pop\n      jump\t// out\n        /* \"#utility.yul\":9011:9154   */\n    tag_123:\n        /* \"#utility.yul\":9068:9073   */\n      0x00\n        /* \"#utility.yul\":9099:9105   */\n      dup2\n        /* \"#utility.yul\":9093:9106   */\n      mload\n        /* \"#utility.yul\":9084:9106   */\n      swap1\n      pop\n        /* \"#utility.yul\":9115:9148   */\n      tag_217\n        /* \"#utility.yul\":9142:9147   */\n      dup2\n        /* \"#utility.yul\":9115:9148   */\n      tag_103\n      jump\t// in\n    tag_217:\n        /* \"#utility.yul\":9011:9154   */\n      swap3\n      swap2\n      pop\n      pop\n      jump\t// out\n        /* \"#utility.yul\":9160:10131   */\n    tag_83:\n        /* \"#utility.yul\":9263:9269   */\n      0x00\n        /* \"#utility.yul\":9271:9277   */\n      dup1\n        /* \"#utility.yul\":9279:9285   */\n      0x00\n        /* \"#utility.yul\":9287:9293   */\n      dup1\n        /* \"#utility.yul\":9295:9301   */\n      0x00\n        /* \"#utility.yul\":9344:9347   */\n      0xa0\n        /* \"#utility.yul\":9332:9341   */\n      dup7\n        /* \"#utility.yul\":9323:9330   */\n      dup9\n        /* \"#utility.yul\":9319:9342   */\n      sub\n        /* \"#utility.yul\":9315:9348   */\n      slt\n        /* \"#utility.yul\":9312:9432   */\n      iszero\n      tag_219\n      jumpi\n        /* \"#utility.yul\":9351:9430   */\n      tag_220\n      tag_94\n      jump\t// in\n    tag_220:\n        /* \"#utility.yul\":9312:9432   */\n    tag_219:\n        /* \"#utility.yul\":9471:9472   */\n      0x00\n        /* \"#utility.yul\":9496:9559   */\n      tag_221\n        /* \"#utility.yul\":9551:9558   */\n      dup9\n        /* \"#utility.yul\":9542:9548   */\n      dup3\n        /* \"#utility.yul\":9531:9540   */\n      dup10\n        /* \"#utility.yul\":9527:9549   */\n      add\n        /* \"#utility.yul\":9496:9559   */\n      tag_119\n      jump\t// in\n    tag_221:\n        /* \"#utility.yul\":9486:9559   */\n      swap6\n      pop\n        /* \"#utility.yul\":9442:9569   */\n      pop\n        /* \"#utility.yul\":9608:9610   */\n      0x20\n        /* \"#utility.yul\":9634:9697   */\n      tag_222\n        /* \"#utility.yul\":9689:9696   */\n      dup9\n        /* \"#utility.yul\":9680:9686   */\n      dup3\n        /* \"#utility.yul\":9669:9678   */\n      dup10\n        /* \"#utility.yul\":9665:9687   */\n      add\n        /* \"#utility.yul\":9634:9697   */\n      tag_122\n      jump\t// in\n    tag_222:\n        /* \"#utility.yul\":9624:9697   */\n      swap5\n      pop\n        /* \"#utility.yul\":9579:9707   */\n      pop\n        /* \"#utility.yul\":9746:9748   */\n      0x40\n        /* \"#utility.yul\":9772:9836   */\n      tag_223\n        /* \"#utility.yul\":9828:9835   */\n      dup9\n        /* \"#utility.yul\":9819:9825   */\n      dup3\n        /* \"#utility.yul\":9808:9817   */\n      dup10\n        /* \"#utility.yul\":9804:9826   */\n      add\n        /* \"#utility.yul\":9772:9836   */\n      tag_123\n      jump\t// in\n    tag_223:\n        /* \"#utility.yul\":9762:9836   */\n      swap4\n      pop\n        /* \"#utility.yul\":9717:9846   */\n      pop\n        /* \"#utility.yul\":9885:9887   */\n      0x60\n        /* \"#utility.yul\":9911:9975   */\n      tag_224\n        /* \"#utility.yul\":9967:9974   */\n      dup9\n        /* \"#utility.yul\":9958:9964   */\n      dup3\n        /* \"#utility.yul\":9947:9956   */\n      dup10\n        /* \"#utility.yul\":9943:9965   */\n      add\n        /* \"#utility.yul\":9911:9975   */\n      tag_123\n      jump\t// in\n    tag_224:\n        /* \"#utility.yul\":9901:9975   */\n      swap3\n      pop\n        /* \"#utility.yul\":9856:9985   */\n      pop\n        /* \"#utility.yul\":10024:10027   */\n      0x80\n        /* \"#utility.yul\":10051:10114   */\n      tag_225\n        /* \"#utility.yul\":10106:10113   */\n      dup9\n        /* \"#utility.yul\":10097:10103   */\n      dup3\n        /* \"#utility.yul\":10086:10095   */\n      dup10\n        /* \"#utility.yul\":10082:10104   */\n      add\n        /* \"#utility.yul\":10051:10114   */\n      tag_119\n      jump\t// in\n    tag_225:\n        /* \"#utility.yul\":10041:10114   */\n      swap2\n      pop\n        /* \"#utility.yul\":9995:10124   */\n      pop\n        /* \"#utility.yul\":9160:10131   */\n      swap3\n      swap6\n      pop\n      swap3\n      swap6\n      swap1\n      swap4\n      pop\n      jump\t// out\n        /* \"#utility.yul\":10137:10693   */\n    tag_85:\n        /* \"#utility.yul\":10176:10183   */\n      0x00\n        /* \"#utility.yul\":10199:10218   */\n      tag_227\n        /* \"#utility.yul\":10216:10217   */\n      dup3\n        /* \"#utility.yul\":10199:10218   */\n      tag_120\n      jump\t// in\n    tag_227:\n        /* \"#utility.yul\":10194:10218   */\n      swap2\n      pop\n        /* \"#utility.yul\":10232:10251   */\n      tag_228\n        /* \"#utility.yul\":10249:10250   */\n      dup4\n        /* \"#utility.yul\":10232:10251   */\n      tag_120\n      jump\t// in\n    tag_228:\n        /* \"#utility.yul\":10227:10251   */\n      swap3\n      pop\n        /* \"#utility.yul\":10286:10287   */\n      dup3\n        /* \"#utility.yul\":10283:10284   */\n      dup3\n        /* \"#utility.yul\":10279:10288   */\n      mul\n        /* \"#utility.yul\":10308:10337   */\n      tag_229\n        /* \"#utility.yul\":10325:10336   */\n      dup2\n        /* \"#utility.yul\":10308:10337   */\n      tag_120\n      jump\t// in\n    tag_229:\n        /* \"#utility.yul\":10297:10337   */\n      swap2\n      pop\n        /* \"#utility.yul\":10395:10461   */\n      0x8000000000000000000000000000000000000000000000000000000000000000\n        /* \"#utility.yul\":10392:10393   */\n      dup5\n        /* \"#utility.yul\":10389:10462   */\n      eq\n        /* \"#utility.yul\":10385:10386   */\n      0x00\n        /* \"#utility.yul\":10382:10383   */\n      dup5\n        /* \"#utility.yul\":10378:10387   */\n      slt\n        /* \"#utility.yul\":10374:10463   */\n      and\n        /* \"#utility.yul\":10371:10486   */\n      iszero\n      tag_230\n      jumpi\n        /* \"#utility.yul\":10466:10484   */\n      tag_231\n      tag_115\n      jump\t// in\n    tag_231:\n        /* \"#utility.yul\":10371:10486   */\n    tag_230:\n        /* \"#utility.yul\":10636:10637   */\n      dup3\n        /* \"#utility.yul\":10627:10634   */\n      dup3\n        /* \"#utility.yul\":10622:10638   */\n      sdiv\n        /* \"#utility.yul\":10619:10620   */\n      dup5\n        /* \"#utility.yul\":10616:10639   */\n      eq\n        /* \"#utility.yul\":10596:10597   */\n      dup4\n        /* \"#utility.yul\":10589:10598   */\n      iszero\n        /* \"#utility.yul\":10569:10653   */\n      or\n        /* \"#utility.yul\":10546:10686   */\n      tag_232\n      jumpi\n        /* \"#utility.yul\":10666:10684   */\n      tag_233\n      tag_115\n      jump\t// in\n    tag_233:\n        /* \"#utility.yul\":10546:10686   */\n    tag_232:\n        /* \"#utility.yul\":10184:10693   */\n      pop\n        /* \"#utility.yul\":10137:10693   */\n      swap3\n      swap2\n      pop\n      pop\n      jump\t// out\n\n    auxdata: 0xa2646970667358221220e9e406eb9b370af86228c5e8bd54f18427d301c27141db6b43dc56df7c392abf64736f6c634300081a0033\n}\n",
				"bytecode": {
					"linkReferences": {},
					"object": "6080604052640ba43b74005f553480156016575f80fd5b503360035f6101000a81548173ffffffffffffffffffffffffffffffffffffffff021916908373ffffffffffffffffffffffffffffffffffffffff160217905550610c6b806100645f395ff3fe608060405260043610610054575f3560e01c80633ccfd60b146100585780633e47d6f31461006e5780638da5cb5b146100aa578063b60d4288146100d4578063dc0d3dff146100de578063dc992aa01461011a575b5f80fd5b348015610063575f80fd5b5061006c610144565b005b348015610079575f80fd5b50610094600480360381019061008f9190610708565b61037c565b6040516100a1919061074b565b60405180910390f35b3480156100b5575f80fd5b506100be610391565b6040516100cb9190610773565b60405180910390f35b6100dc6103b6565b005b3480156100e9575f80fd5b5061010460048036038101906100ff91906107b6565b6104ee565b6040516101119190610773565b60405180910390f35b348015610125575f80fd5b5061012e610529565b60405161013b919061074b565b60405180910390f35b60035f9054906101000a900473ffffffffffffffffffffffffffffffffffffffff1673ffffffffffffffffffffffffffffffffffffffff163373ffffffffffffffffffffffffffffffffffffffff16146101d3576040517f08c379a00000000000000000000000000000000000000000000000000000000081526004016101ca9061083b565b60405180910390fd5b5f5b600180549050811015610271575f600182815481106101f7576101f6610859565b5b905f5260205f20015f9054906101000a900473ffffffffffffffffffffffffffffffffffffffff1690505f60025f8373ffffffffffffffffffffffffffffffffffffffff1673ffffffffffffffffffffffffffffffffffffffff1681526020019081526020015f20819055505080806001019150506101d5565b505f67ffffffffffffffff81111561028c5761028b610886565b5b6040519080825280602002602001820160405280156102ba5781602001602082028036833780820191505090505b50600190805190602001906102d0929190610608565b505f3373ffffffffffffffffffffffffffffffffffffffff16476040516102f6906108e0565b5f6040518083038185875af1925050503d805f8114610330576040519150601f19603f3d011682016040523d82523d5f602084013e610335565b606091505b5050905080610379576040517f08c379a00000000000000000000000000000000000000000000000000000000081526004016103709061093e565b60405180910390fd5b50565b6002602052805f5260405f205f915090505481565b60035f9054906101000a900473ffffffffffffffffffffffffffffffffffffffff1681565b5f546103c13461052e565b1015610402576040517f08c379a00000000000000000000000000000000000000000000000000000000081526004016103f9906109a6565b60405180910390fd5b600133908060018154018082558091505060019003905f5260205f20015f9091909190916101000a81548173ffffffffffffffffffffffffffffffffffffffff021916908373ffffffffffffffffffffffffffffffffffffffff1602179055503460025f3373ffffffffffffffffffffffffffffffffffffffff1673ffffffffffffffffffffffffffffffffffffffff1681526020019081526020015f20546104ab91906109f1565b60025f3373ffffffffffffffffffffffffffffffffffffffff1673ffffffffffffffffffffffffffffffffffffffff1681526020019081526020015f2081905550565b600181815481106104fd575f80fd5b905f5260205f20015f915054906101000a900473ffffffffffffffffffffffffffffffffffffffff1681565b5f5481565b5f80610538610563565b90505f6402540be400848361054d9190610a24565b6105579190610a92565b90508092505050919050565b5f8073694aa1769357215de4fac081bf1f309adc32530690505f8173ffffffffffffffffffffffffffffffffffffffff1663feaf968c6040518163ffffffff1660e01b815260040160a060405180830381865afa1580156105c6573d5f803e3d5ffd5b505050506040513d601f19601f820116820180604052508101906105ea9190610b48565b5050509150506402540be400816106019190610bbf565b9250505090565b828054828255905f5260205f2090810192821561067e579160200282015b8281111561067d578251825f6101000a81548173ffffffffffffffffffffffffffffffffffffffff021916908373ffffffffffffffffffffffffffffffffffffffff16021790555091602001919060010190610626565b5b50905061068b919061068f565b5090565b5b808211156106a6575f815f905550600101610690565b5090565b5f80fd5b5f73ffffffffffffffffffffffffffffffffffffffff82169050919050565b5f6106d7826106ae565b9050919050565b6106e7816106cd565b81146106f1575f80fd5b50565b5f81359050610702816106de565b92915050565b5f6020828403121561071d5761071c6106aa565b5b5f61072a848285016106f4565b91505092915050565b5f819050919050565b61074581610733565b82525050565b5f60208201905061075e5f83018461073c565b92915050565b61076d816106cd565b82525050565b5f6020820190506107865f830184610764565b92915050565b61079581610733565b811461079f575f80fd5b50565b5f813590506107b08161078c565b92915050565b5f602082840312156107cb576107ca6106aa565b5b5f6107d8848285016107a2565b91505092915050565b5f82825260208201905092915050565b7f53656e646572206973206e6f7420746865206f776e65720000000000000000005f82015250565b5f6108256017836107e1565b9150610830826107f1565b602082019050919050565b5f6020820190508181035f83015261085281610819565b9050919050565b7f4e487b71000000000000000000000000000000000000000000000000000000005f52603260045260245ffd5b7f4e487b71000000000000000000000000000000000000000000000000000000005f52604160045260245ffd5b5f81905092915050565b50565b5f6108cb5f836108b3565b91506108d6826108bd565b5f82019050919050565b5f6108ea826108c0565b9150819050919050565b7f43616c6c206661696c65640000000000000000000000000000000000000000005f82015250565b5f610928600b836107e1565b9150610933826108f4565b602082019050919050565b5f6020820190508181035f8301526109558161091c565b9050919050565b7f446964206e6f742073656e6420656e6f756768204554480000000000000000005f82015250565b5f6109906017836107e1565b915061099b8261095c565b602082019050919050565b5f6020820190508181035f8301526109bd81610984565b9050919050565b7f4e487b71000000000000000000000000000000000000000000000000000000005f52601160045260245ffd5b5f6109fb82610733565b9150610a0683610733565b9250828201905080821115610a1e57610a1d6109c4565b5b92915050565b5f610a2e82610733565b9150610a3983610733565b9250828202610a4781610733565b91508282048414831517610a5e57610a5d6109c4565b5b5092915050565b7f4e487b71000000000000000000000000000000000000000000000000000000005f52601260045260245ffd5b5f610a9c82610733565b9150610aa783610733565b925082610ab757610ab6610a65565b5b828204905092915050565b5f69ffffffffffffffffffff82169050919050565b610ae081610ac2565b8114610aea575f80fd5b50565b5f81519050610afb81610ad7565b92915050565b5f819050919050565b610b1381610b01565b8114610b1d575f80fd5b50565b5f81519050610b2e81610b0a565b92915050565b5f81519050610b428161078c565b92915050565b5f805f805f60a08688031215610b6157610b606106aa565b5b5f610b6e88828901610aed565b9550506020610b7f88828901610b20565b9450506040610b9088828901610b34565b9350506060610ba188828901610b34565b9250506080610bb288828901610aed565b9150509295509295909350565b5f610bc982610b01565b9150610bd483610b01565b9250828202610be281610b01565b91507f800000000000000000000000000000000000000000000000000000000000000084145f84121615610c1957610c186109c4565b5b8282058414831517610c2e57610c2d6109c4565b5b509291505056fea2646970667358221220e9e406eb9b370af86228c5e8bd54f18427d301c27141db6b43dc56df7c392abf64736f6c634300081a0033",
					"opcodes": "PUSH1 0x80 PUSH1 0x40 MSTORE PUSH5 0xBA43B7400 PUSH0 SSTORE CALLVALUE DUP1 ISZERO PUSH1 0x16 JUMPI PUSH0 DUP1 REVERT JUMPDEST POP CALLER PUSH1 0x3 PUSH0 PUSH2 0x100 EXP DUP2 SLOAD DUP2 PUSH20 0xFFFFFFFFFFFFFFFFFFFFFFFFFFFFFFFFFFFFFFFF MUL NOT AND SWAP1 DUP4 PUSH20 0xFFFFFFFFFFFFFFFFFFFFFFFFFFFFFFFFFFFFFFFF AND MUL OR SWAP1 SSTORE POP PUSH2 0xC6B DUP1 PUSH2 0x64 PUSH0 CODECOPY PUSH0 RETURN INVALID PUSH1 0x80 PUSH1 0x40 MSTORE PUSH1 0x4 CALLDATASIZE LT PUSH2 0x54 JUMPI PUSH0 CALLDATALOAD PUSH1 0xE0 SHR DUP1 PUSH4 0x3CCFD60B EQ PUSH2 0x58 JUMPI DUP1 PUSH4 0x3E47D6F3 EQ PUSH2 0x6E JUMPI DUP1 PUSH4 0x8DA5CB5B EQ PUSH2 0xAA JUMPI DUP1 PUSH4 0xB60D4288 EQ PUSH2 0xD4 JUMPI DUP1 PUSH4 0xDC0D3DFF EQ PUSH2 0xDE JUMPI DUP1 PUSH4 0xDC992AA0 EQ PUSH2 0x11A JUMPI JUMPDEST PUSH0 DUP1 REVERT JUMPDEST CALLVALUE DUP1 ISZERO PUSH2 0x63 JUMPI PUSH0 DUP1 REVERT JUMPDEST POP PUSH2 0x6C PUSH2 0x144 JUMP JUMPDEST STOP JUMPDEST CALLVALUE DUP1 ISZERO PUSH2 0x79 JUMPI PUSH0 DUP1 REVERT JUMPDEST POP PUSH2 0x94 PUSH1 0x4 DUP1 CALLDATASIZE SUB DUP2 ADD SWAP1 PUSH2 0x8F SWAP2 SWAP1 PUSH2 0x708 JUMP JUMPDEST PUSH2 0x37C JUMP JUMPDEST PUSH1 0x40 MLOAD PUSH2 0xA1 SWAP2 SWAP1 PUSH2 0x74B JUMP JUMPDEST PUSH1 0x40 MLOAD DUP1 SWAP2 SUB SWAP1 RETURN JUMPDEST CALLVALUE DUP1 ISZERO PUSH2 0xB5 JUMPI PUSH0 DUP1 REVERT JUMPDEST POP PUSH2 0xBE PUSH2 0x391 JUMP JUMPDEST PUSH1 0x40 MLOAD PUSH2 0xCB SWAP2 SWAP1 PUSH2 0x773 JUMP JUMPDEST PUSH1 0x40 MLOAD DUP1 SWAP2 SUB SWAP1 RETURN JUMPDEST PUSH2 0xDC PUSH2 0x3B6 JUMP JUMPDEST STOP JUMPDEST CALLVALUE DUP1 ISZERO PUSH2 0xE9 JUMPI PUSH0 DUP1 REVERT JUMPDEST POP PUSH2 0x104 PUSH1 0x4 DUP1 CALLDATASIZE SUB DUP2 ADD SWAP1 PUSH2 0xFF SWAP2 SWAP1 PUSH2 0x7B6 JUMP JUMPDEST PUSH2 0x4EE JUMP JUMPDEST PUSH1 0x40 MLOAD PUSH2 0x111 SWAP2 SWAP1 PUSH2 0x773 JUMP JUMPDEST PUSH1 0x40 MLOAD DUP1 SWAP2 SUB SWAP1 RETURN JUMPDEST CALLVALUE DUP1 ISZERO PUSH2 0x125 JUMPI PUSH0 DUP1 REVERT JUMPDEST POP PUSH2 0x12E PUSH2 0x529 JUMP JUMPDEST PUSH1 0x40 MLOAD PUSH2 0x13B SWAP2 SWAP1 PUSH2 0x74B JUMP JUMPDEST PUSH1 0x40 MLOAD DUP1 SWAP2 SUB SWAP1 RETURN JUMPDEST PUSH1 0x3 PUSH0 SWAP1 SLOAD SWAP1 PUSH2 0x100 EXP SWAP1 DIV PUSH20 0xFFFFFFFFFFFFFFFFFFFFFFFFFFFFFFFFFFFFFFFF AND PUSH20 0xFFFFFFFFFFFFFFFFFFFFFFFFFFFFFFFFFFFFFFFF AND CALLER PUSH20 0xFFFFFFFFFFFFFFFFFFFFFFFFFFFFFFFFFFFFFFFF AND EQ PUSH2 0x1D3 JUMPI PUSH1 0x40 MLOAD PUSH32 0x8C379A000000000000000000000000000000000000000000000000000000000 DUP2 MSTORE PUSH1 0x4 ADD PUSH2 0x1CA SWAP1 PUSH2 0x83B JUMP JUMPDEST PUSH1 0x40 MLOAD DUP1 SWAP2 SUB SWAP1 REVERT JUMPDEST PUSH0 JUMPDEST PUSH1 0x1 DUP1 SLOAD SWAP1 POP DUP2 LT ISZERO PUSH2 0x271 JUMPI PUSH0 PUSH1 0x1 DUP3 DUP2 SLOAD DUP2 LT PUSH2 0x1F7 JUMPI PUSH2 0x1F6 PUSH2 0x859 JUMP JUMPDEST JUMPDEST SWAP1 PUSH0 MSTORE PUSH1 0x20 PUSH0 KECCAK256 ADD PUSH0 SWAP1 SLOAD SWAP1 PUSH2 0x100 EXP SWAP1 DIV PUSH20 0xFFFFFFFFFFFFFFFFFFFFFFFFFFFFFFFFFFFFFFFF AND SWAP1 POP PUSH0 PUSH1 0x2 PUSH0 DUP4 PUSH20 0xFFFFFFFFFFFFFFFFFFFFFFFFFFFFFFFFFFFFFFFF AND PUSH20 0xFFFFFFFFFFFFFFFFFFFFFFFFFFFFFFFFFFFFFFFF AND DUP2 MSTORE PUSH1 0x20 ADD SWAP1 DUP2 MSTORE PUSH1 0x20 ADD PUSH0 KECCAK256 DUP2 SWAP1 SSTORE POP POP DUP1 DUP1 PUSH1 0x1 ADD SWAP2 POP POP PUSH2 0x1D5 JUMP JUMPDEST POP PUSH0 PUSH8 0xFFFFFFFFFFFFFFFF DUP2 GT ISZERO PUSH2 0x28C JUMPI PUSH2 0x28B PUSH2 0x886 JUMP JUMPDEST JUMPDEST PUSH1 0x40 MLOAD SWAP1 DUP1 DUP3 MSTORE DUP1 PUSH1 0x20 MUL PUSH1 0x20 ADD DUP3 ADD PUSH1 0x40 MSTORE DUP1 ISZERO PUSH2 0x2BA JUMPI DUP2 PUSH1 0x20 ADD PUSH1 0x20 DUP3 MUL DUP1 CALLDATASIZE DUP4 CALLDATACOPY DUP1 DUP3 ADD SWAP2 POP POP SWAP1 POP JUMPDEST POP PUSH1 0x1 SWAP1 DUP1 MLOAD SWAP1 PUSH1 0x20 ADD SWAP1 PUSH2 0x2D0 SWAP3 SWAP2 SWAP1 PUSH2 0x608 JUMP JUMPDEST POP PUSH0 CALLER PUSH20 0xFFFFFFFFFFFFFFFFFFFFFFFFFFFFFFFFFFFFFFFF AND SELFBALANCE PUSH1 0x40 MLOAD PUSH2 0x2F6 SWAP1 PUSH2 0x8E0 JUMP JUMPDEST PUSH0 PUSH1 0x40 MLOAD DUP1 DUP4 SUB DUP2 DUP6 DUP8 GAS CALL SWAP3 POP POP POP RETURNDATASIZE DUP1 PUSH0 DUP2 EQ PUSH2 0x330 JUMPI PUSH1 0x40 MLOAD SWAP2 POP PUSH1 0x1F NOT PUSH1 0x3F RETURNDATASIZE ADD AND DUP3 ADD PUSH1 0x40 MSTORE RETURNDATASIZE DUP3 MSTORE RETURNDATASIZE PUSH0 PUSH1 0x20 DUP5 ADD RETURNDATACOPY PUSH2 0x335 JUMP JUMPDEST PUSH1 0x60 SWAP2 POP JUMPDEST POP POP SWAP1 POP DUP1 PUSH2 0x379 JUMPI PUSH1 0x40 MLOAD PUSH32 0x8C379A000000000000000000000000000000000000000000000000000000000 DUP2 MSTORE PUSH1 0x4 ADD PUSH2 0x370 SWAP1 PUSH2 0x93E JUMP JUMPDEST PUSH1 0x40 MLOAD DUP1 SWAP2 SUB SWAP1 REVERT JUMPDEST POP JUMP JUMPDEST PUSH1 0x2 PUSH1 0x20 MSTORE DUP1 PUSH0 MSTORE PUSH1 0x40 PUSH0 KECCAK256 PUSH0 SWAP2 POP SWAP1 POP SLOAD DUP2 JUMP JUMPDEST PUSH1 0x3 PUSH0 SWAP1 SLOAD SWAP1 PUSH2 0x100 EXP SWAP1 DIV PUSH20 0xFFFFFFFFFFFFFFFFFFFFFFFFFFFFFFFFFFFFFFFF AND DUP2 JUMP JUMPDEST PUSH0 SLOAD PUSH2 0x3C1 CALLVALUE PUSH2 0x52E JUMP JUMPDEST LT ISZERO PUSH2 0x402 JUMPI PUSH1 0x40 MLOAD PUSH32 0x8C379A000000000000000000000000000000000000000000000000000000000 DUP2 MSTORE PUSH1 0x4 ADD PUSH2 0x3F9 SWAP1 PUSH2 0x9A6 JUMP JUMPDEST PUSH1 0x40 MLOAD DUP1 SWAP2 SUB SWAP1 REVERT JUMPDEST PUSH1 0x1 CALLER SWAP1 DUP1 PUSH1 0x1 DUP2 SLOAD ADD DUP1 DUP3 SSTORE DUP1 SWAP2 POP POP PUSH1 0x1 SWAP1 SUB SWAP1 PUSH0 MSTORE PUSH1 0x20 PUSH0 KECCAK256 ADD PUSH0 SWAP1 SWAP2 SWAP1 SWAP2 SWAP1 SWAP2 PUSH2 0x100 EXP DUP2 SLOAD DUP2 PUSH20 0xFFFFFFFFFFFFFFFFFFFFFFFFFFFFFFFFFFFFFFFF MUL NOT AND SWAP1 DUP4 PUSH20 0xFFFFFFFFFFFFFFFFFFFFFFFFFFFFFFFFFFFFFFFF AND MUL OR SWAP1 SSTORE POP CALLVALUE PUSH1 0x2 PUSH0 CALLER PUSH20 0xFFFFFFFFFFFFFFFFFFFFFFFFFFFFFFFFFFFFFFFF AND PUSH20 0xFFFFFFFFFFFFFFFFFFFFFFFFFFFFFFFFFFFFFFFF AND DUP2 MSTORE PUSH1 0x20 ADD SWAP1 DUP2 MSTORE PUSH1 0x20 ADD PUSH0 KECCAK256 SLOAD PUSH2 0x4AB SWAP2 SWAP1 PUSH2 0x9F1 JUMP JUMPDEST PUSH1 0x2 PUSH0 CALLER PUSH20 0xFFFFFFFFFFFFFFFFFFFFFFFFFFFFFFFFFFFFFFFF AND PUSH20 0xFFFFFFFFFFFFFFFFFFFFFFFFFFFFFFFFFFFFFFFF AND DUP2 MSTORE PUSH1 0x20 ADD SWAP1 DUP2 MSTORE PUSH1 0x20 ADD PUSH0 KECCAK256 DUP2 SWAP1 SSTORE POP JUMP JUMPDEST PUSH1 0x1 DUP2 DUP2 SLOAD DUP2 LT PUSH2 0x4FD JUMPI PUSH0 DUP1 REVERT JUMPDEST SWAP1 PUSH0 MSTORE PUSH1 0x20 PUSH0 KECCAK256 ADD PUSH0 SWAP2 POP SLOAD SWAP1 PUSH2 0x100 EXP SWAP1 DIV PUSH20 0xFFFFFFFFFFFFFFFFFFFFFFFFFFFFFFFFFFFFFFFF AND DUP2 JUMP JUMPDEST PUSH0 SLOAD DUP2 JUMP JUMPDEST PUSH0 DUP1 PUSH2 0x538 PUSH2 0x563 JUMP JUMPDEST SWAP1 POP PUSH0 PUSH5 0x2540BE400 DUP5 DUP4 PUSH2 0x54D SWAP2 SWAP1 PUSH2 0xA24 JUMP JUMPDEST PUSH2 0x557 SWAP2 SWAP1 PUSH2 0xA92 JUMP JUMPDEST SWAP1 POP DUP1 SWAP3 POP POP POP SWAP2 SWAP1 POP JUMP JUMPDEST PUSH0 DUP1 PUSH20 0x694AA1769357215DE4FAC081BF1F309ADC325306 SWAP1 POP PUSH0 DUP2 PUSH20 0xFFFFFFFFFFFFFFFFFFFFFFFFFFFFFFFFFFFFFFFF AND PUSH4 0xFEAF968C PUSH1 0x40 MLOAD DUP2 PUSH4 0xFFFFFFFF AND PUSH1 0xE0 SHL DUP2 MSTORE PUSH1 0x4 ADD PUSH1 0xA0 PUSH1 0x40 MLOAD DUP1 DUP4 SUB DUP2 DUP7 GAS STATICCALL ISZERO DUP1 ISZERO PUSH2 0x5C6 JUMPI RETURNDATASIZE PUSH0 DUP1 RETURNDATACOPY RETURNDATASIZE PUSH0 REVERT JUMPDEST POP POP POP POP PUSH1 0x40 MLOAD RETURNDATASIZE PUSH1 0x1F NOT PUSH1 0x1F DUP3 ADD AND DUP3 ADD DUP1 PUSH1 0x40 MSTORE POP DUP2 ADD SWAP1 PUSH2 0x5EA SWAP2 SWAP1 PUSH2 0xB48 JUMP JUMPDEST POP POP POP SWAP2 POP POP PUSH5 0x2540BE400 DUP2 PUSH2 0x601 SWAP2 SWAP1 PUSH2 0xBBF JUMP JUMPDEST SWAP3 POP POP POP SWAP1 JUMP JUMPDEST DUP3 DUP1 SLOAD DUP3 DUP3 SSTORE SWAP1 PUSH0 MSTORE PUSH1 0x20 PUSH0 KECCAK256 SWAP1 DUP2 ADD SWAP3 DUP3 ISZERO PUSH2 0x67E JUMPI SWAP2 PUSH1 0x20 MUL DUP3 ADD JUMPDEST DUP3 DUP2 GT ISZERO PUSH2 0x67D JUMPI DUP3 MLOAD DUP3 PUSH0 PUSH2 0x100 EXP DUP2 SLOAD DUP2 PUSH20 0xFFFFFFFFFFFFFFFFFFFFFFFFFFFFFFFFFFFFFFFF MUL NOT AND SWAP1 DUP4 PUSH20 0xFFFFFFFFFFFFFFFFFFFFFFFFFFFFFFFFFFFFFFFF AND MUL OR SWAP1 SSTORE POP SWAP2 PUSH1 0x20 ADD SWAP2 SWAP1 PUSH1 0x1 ADD SWAP1 PUSH2 0x626 JUMP JUMPDEST JUMPDEST POP SWAP1 POP PUSH2 0x68B SWAP2 SWAP1 PUSH2 0x68F JUMP JUMPDEST POP SWAP1 JUMP JUMPDEST JUMPDEST DUP1 DUP3 GT ISZERO PUSH2 0x6A6 JUMPI PUSH0 DUP2 PUSH0 SWAP1 SSTORE POP PUSH1 0x1 ADD PUSH2 0x690 JUMP JUMPDEST POP SWAP1 JUMP JUMPDEST PUSH0 DUP1 REVERT JUMPDEST PUSH0 PUSH20 0xFFFFFFFFFFFFFFFFFFFFFFFFFFFFFFFFFFFFFFFF DUP3 AND SWAP1 POP SWAP2 SWAP1 POP JUMP JUMPDEST PUSH0 PUSH2 0x6D7 DUP3 PUSH2 0x6AE JUMP JUMPDEST SWAP1 POP SWAP2 SWAP1 POP JUMP JUMPDEST PUSH2 0x6E7 DUP2 PUSH2 0x6CD JUMP JUMPDEST DUP2 EQ PUSH2 0x6F1 JUMPI PUSH0 DUP1 REVERT JUMPDEST POP JUMP JUMPDEST PUSH0 DUP2 CALLDATALOAD SWAP1 POP PUSH2 0x702 DUP2 PUSH2 0x6DE JUMP JUMPDEST SWAP3 SWAP2 POP POP JUMP JUMPDEST PUSH0 PUSH1 0x20 DUP3 DUP5 SUB SLT ISZERO PUSH2 0x71D JUMPI PUSH2 0x71C PUSH2 0x6AA JUMP JUMPDEST JUMPDEST PUSH0 PUSH2 0x72A DUP5 DUP3 DUP6 ADD PUSH2 0x6F4 JUMP JUMPDEST SWAP2 POP POP SWAP3 SWAP2 POP POP JUMP JUMPDEST PUSH0 DUP2 SWAP1 POP SWAP2 SWAP1 POP JUMP JUMPDEST PUSH2 0x745 DUP2 PUSH2 0x733 JUMP JUMPDEST DUP3 MSTORE POP POP JUMP JUMPDEST PUSH0 PUSH1 0x20 DUP3 ADD SWAP1 POP PUSH2 0x75E PUSH0 DUP4 ADD DUP5 PUSH2 0x73C JUMP JUMPDEST SWAP3 SWAP2 POP POP JUMP JUMPDEST PUSH2 0x76D DUP2 PUSH2 0x6CD JUMP JUMPDEST DUP3 MSTORE POP POP JUMP JUMPDEST PUSH0 PUSH1 0x20 DUP3 ADD SWAP1 POP PUSH2 0x786 PUSH0 DUP4 ADD DUP5 PUSH2 0x764 JUMP JUMPDEST SWAP3 SWAP2 POP POP JUMP JUMPDEST PUSH2 0x795 DUP2 PUSH2 0x733 JUMP JUMPDEST DUP2 EQ PUSH2 0x79F JUMPI PUSH0 DUP1 REVERT JUMPDEST POP JUMP JUMPDEST PUSH0 DUP2 CALLDATALOAD SWAP1 POP PUSH2 0x7B0 DUP2 PUSH2 0x78C JUMP JUMPDEST SWAP3 SWAP2 POP POP JUMP JUMPDEST PUSH0 PUSH1 0x20 DUP3 DUP5 SUB SLT ISZERO PUSH2 0x7CB JUMPI PUSH2 0x7CA PUSH2 0x6AA JUMP JUMPDEST JUMPDEST PUSH0 PUSH2 0x7D8 DUP5 DUP3 DUP6 ADD PUSH2 0x7A2 JUMP JUMPDEST SWAP2 POP POP SWAP3 SWAP2 POP POP JUMP JUMPDEST PUSH0 DUP3 DUP3 MSTORE PUSH1 0x20 DUP3 ADD SWAP1 POP SWAP3 SWAP2 POP POP JUMP JUMPDEST PUSH32 0x53656E646572206973206E6F7420746865206F776E6572000000000000000000 PUSH0 DUP3 ADD MSTORE POP JUMP JUMPDEST PUSH0 PUSH2 0x825 PUSH1 0x17 DUP4 PUSH2 0x7E1 JUMP JUMPDEST SWAP2 POP PUSH2 0x830 DUP3 PUSH2 0x7F1 JUMP JUMPDEST PUSH1 0x20 DUP3 ADD SWAP1 POP SWAP2 SWAP1 POP JUMP JUMPDEST PUSH0 PUSH1 0x20 DUP3 ADD SWAP1 POP DUP2 DUP2 SUB PUSH0 DUP4 ADD MSTORE PUSH2 0x852 DUP2 PUSH2 0x819 JUMP JUMPDEST SWAP1 POP SWAP2 SWAP1 POP JUMP JUMPDEST PUSH32 0x4E487B7100000000000000000000000000000000000000000000000000000000 PUSH0 MSTORE PUSH1 0x32 PUSH1 0x4 MSTORE PUSH1 0x24 PUSH0 REVERT JUMPDEST PUSH32 0x4E487B7100000000000000000000000000000000000000000000000000000000 PUSH0 MSTORE PUSH1 0x41 PUSH1 0x4 MSTORE PUSH1 0x24 PUSH0 REVERT JUMPDEST PUSH0 DUP2 SWAP1 POP SWAP3 SWAP2 POP POP JUMP JUMPDEST POP JUMP JUMPDEST PUSH0 PUSH2 0x8CB PUSH0 DUP4 PUSH2 0x8B3 JUMP JUMPDEST SWAP2 POP PUSH2 0x8D6 DUP3 PUSH2 0x8BD JUMP JUMPDEST PUSH0 DUP3 ADD SWAP1 POP SWAP2 SWAP1 POP JUMP JUMPDEST PUSH0 PUSH2 0x8EA DUP3 PUSH2 0x8C0 JUMP JUMPDEST SWAP2 POP DUP2 SWAP1 POP SWAP2 SWAP1 POP JUMP JUMPDEST PUSH32 0x43616C6C206661696C6564000000000000000000000000000000000000000000 PUSH0 DUP3 ADD MSTORE POP JUMP JUMPDEST PUSH0 PUSH2 0x928 PUSH1 0xB DUP4 PUSH2 0x7E1 JUMP JUMPDEST SWAP2 POP PUSH2 0x933 DUP3 PUSH2 0x8F4 JUMP JUMPDEST PUSH1 0x20 DUP3 ADD SWAP1 POP SWAP2 SWAP1 POP JUMP JUMPDEST PUSH0 PUSH1 0x20 DUP3 ADD SWAP1 POP DUP2 DUP2 SUB PUSH0 DUP4 ADD MSTORE PUSH2 0x955 DUP2 PUSH2 0x91C JUMP JUMPDEST SWAP1 POP SWAP2 SWAP1 POP JUMP JUMPDEST PUSH32 0x446964206E6F742073656E6420656E6F75676820455448000000000000000000 PUSH0 DUP3 ADD MSTORE POP JUMP JUMPDEST PUSH0 PUSH2 0x990 PUSH1 0x17 DUP4 PUSH2 0x7E1 JUMP JUMPDEST SWAP2 POP PUSH2 0x99B DUP3 PUSH2 0x95C JUMP JUMPDEST PUSH1 0x20 DUP3 ADD SWAP1 POP SWAP2 SWAP1 POP JUMP JUMPDEST PUSH0 PUSH1 0x20 DUP3 ADD SWAP1 POP DUP2 DUP2 SUB PUSH0 DUP4 ADD MSTORE PUSH2 0x9BD DUP2 PUSH2 0x984 JUMP JUMPDEST SWAP1 POP SWAP2 SWAP1 POP JUMP JUMPDEST PUSH32 0x4E487B7100000000000000000000000000000000000000000000000000000000 PUSH0 MSTORE PUSH1 0x11 PUSH1 0x4 MSTORE PUSH1 0x24 PUSH0 REVERT JUMPDEST PUSH0 PUSH2 0x9FB DUP3 PUSH2 0x733 JUMP JUMPDEST SWAP2 POP PUSH2 0xA06 DUP4 PUSH2 0x733 JUMP JUMPDEST SWAP3 POP DUP3 DUP3 ADD SWAP1 POP DUP1 DUP3 GT ISZERO PUSH2 0xA1E JUMPI PUSH2 0xA1D PUSH2 0x9C4 JUMP JUMPDEST JUMPDEST SWAP3 SWAP2 POP POP JUMP JUMPDEST PUSH0 PUSH2 0xA2E DUP3 PUSH2 0x733 JUMP JUMPDEST SWAP2 POP PUSH2 0xA39 DUP4 PUSH2 0x733 JUMP JUMPDEST SWAP3 POP DUP3 DUP3 MUL PUSH2 0xA47 DUP2 PUSH2 0x733 JUMP JUMPDEST SWAP2 POP DUP3 DUP3 DIV DUP5 EQ DUP4 ISZERO OR PUSH2 0xA5E JUMPI PUSH2 0xA5D PUSH2 0x9C4 JUMP JUMPDEST JUMPDEST POP SWAP3 SWAP2 POP POP JUMP JUMPDEST PUSH32 0x4E487B7100000000000000000000000000000000000000000000000000000000 PUSH0 MSTORE PUSH1 0x12 PUSH1 0x4 MSTORE PUSH1 0x24 PUSH0 REVERT JUMPDEST PUSH0 PUSH2 0xA9C DUP3 PUSH2 0x733 JUMP JUMPDEST SWAP2 POP PUSH2 0xAA7 DUP4 PUSH2 0x733 JUMP JUMPDEST SWAP3 POP DUP3 PUSH2 0xAB7 JUMPI PUSH2 0xAB6 PUSH2 0xA65 JUMP JUMPDEST JUMPDEST DUP3 DUP3 DIV SWAP1 POP SWAP3 SWAP2 POP POP JUMP JUMPDEST PUSH0 PUSH10 0xFFFFFFFFFFFFFFFFFFFF DUP3 AND SWAP1 POP SWAP2 SWAP1 POP JUMP JUMPDEST PUSH2 0xAE0 DUP2 PUSH2 0xAC2 JUMP JUMPDEST DUP2 EQ PUSH2 0xAEA JUMPI PUSH0 DUP1 REVERT JUMPDEST POP JUMP JUMPDEST PUSH0 DUP2 MLOAD SWAP1 POP PUSH2 0xAFB DUP2 PUSH2 0xAD7 JUMP JUMPDEST SWAP3 SWAP2 POP POP JUMP JUMPDEST PUSH0 DUP2 SWAP1 POP SWAP2 SWAP1 POP JUMP JUMPDEST PUSH2 0xB13 DUP2 PUSH2 0xB01 JUMP JUMPDEST DUP2 EQ PUSH2 0xB1D JUMPI PUSH0 DUP1 REVERT JUMPDEST POP JUMP JUMPDEST PUSH0 DUP2 MLOAD SWAP1 POP PUSH2 0xB2E DUP2 PUSH2 0xB0A JUMP JUMPDEST SWAP3 SWAP2 POP POP JUMP JUMPDEST PUSH0 DUP2 MLOAD SWAP1 POP PUSH2 0xB42 DUP2 PUSH2 0x78C JUMP JUMPDEST SWAP3 SWAP2 POP POP JUMP JUMPDEST PUSH0 DUP1 PUSH0 DUP1 PUSH0 PUSH1 0xA0 DUP7 DUP9 SUB SLT ISZERO PUSH2 0xB61 JUMPI PUSH2 0xB60 PUSH2 0x6AA JUMP JUMPDEST JUMPDEST PUSH0 PUSH2 0xB6E DUP9 DUP3 DUP10 ADD PUSH2 0xAED JUMP JUMPDEST SWAP6 POP POP PUSH1 0x20 PUSH2 0xB7F DUP9 DUP3 DUP10 ADD PUSH2 0xB20 JUMP JUMPDEST SWAP5 POP POP PUSH1 0x40 PUSH2 0xB90 DUP9 DUP3 DUP10 ADD PUSH2 0xB34 JUMP JUMPDEST SWAP4 POP POP PUSH1 0x60 PUSH2 0xBA1 DUP9 DUP3 DUP10 ADD PUSH2 0xB34 JUMP JUMPDEST SWAP3 POP POP PUSH1 0x80 PUSH2 0xBB2 DUP9 DUP3 DUP10 ADD PUSH2 0xAED JUMP JUMPDEST SWAP2 POP POP SWAP3 SWAP6 POP SWAP3 SWAP6 SWAP1 SWAP4 POP JUMP JUMPDEST PUSH0 PUSH2 0xBC9 DUP3 PUSH2 0xB01 JUMP JUMPDEST SWAP2 POP PUSH2 0xBD4 DUP4 PUSH2 0xB01 JUMP JUMPDEST SWAP3 POP DUP3 DUP3 MUL PUSH2 0xBE2 DUP2 PUSH2 0xB01 JUMP JUMPDEST SWAP2 POP PUSH32 0x8000000000000000000000000000000000000000000000000000000000000000 DUP5 EQ PUSH0 DUP5 SLT AND ISZERO PUSH2 0xC19 JUMPI PUSH2 0xC18 PUSH2 0x9C4 JUMP JUMPDEST JUMPDEST DUP3 DUP3 SDIV DUP5 EQ DUP4 ISZERO OR PUSH2 0xC2E JUMPI PUSH2 0xC2D PUSH2 0x9C4 JUMP JUMPDEST JUMPDEST POP SWAP3 SWAP2 POP POP JUMP INVALID LOG2 PUSH5 0x6970667358 0x22 SLT KECCAK256 0xE9 0xE4 MOD 0xEB SWAP12 CALLDATACOPY EXP 0xF8 PUSH3 0x28C5E8 0xBD SLOAD CALL DUP5 0x27 0xD3 ADD 0xC2 PUSH18 0x41DB6B43DC56DF7C392ABF64736F6C634300 ADDMOD BYTE STOP CALLER "
				},
				"gasEstimates": {
					"creation": {
						"codeDepositCost": "635800",
						"executionCost": "47038",
						"totalCost": "682838"
					},
					"external": {
						"addressToAmountFunded(address)": "2802",
						"fund()": "infinite",
						"funders(uint256)": "5010",
						"minUSD()": "2512",
						"owner()": "2530",
						"withdraw()": "infinite"
					}
				},
				"methodIdentifiers": {
					"addressToAmountFunded(address)": "3e47d6f3",
					"fund()": "b60d4288",
					"funders(uint256)": "dc0d3dff",
					"minUSD()": "dc992aa0",
					"owner()": "8da5cb5b",
					"withdraw()": "3ccfd60b"
				}
			},
			"storageLayout": {
				"storage": [
					{
						"astId": 124,
						"contract": "Fundme.sol:FundMe",
						"label": "minUSD",
						"offset": 0,
						"slot": "0",
						"type": "t_uint256"
					},
					{
						"astId": 127,
						"contract": "Fundme.sol:FundMe",
						"label": "funders",
						"offset": 0,
						"slot": "1",
						"type": "t_array(t_address)dyn_storage"
					},
					{
						"astId": 131,
						"contract": "Fundme.sol:FundMe",
						"label": "addressToAmountFunded",
						"offset": 0,
						"slot": "2",
						"type": "t_mapping(t_address,t_uint256)"
					},
					{
						"astId": 133,
						"contract": "Fundme.sol:FundMe",
						"label": "owner",
						"offset": 0,
						"slot": "3",
						"type": "t_address"
					}
				],
				"types": {
					"t_address": {
						"encoding": "inplace",
						"label": "address",
						"numberOfBytes": "20"
					},
					"t_array(t_address)dyn_storage": {
						"base": "t_address",
						"encoding": "dynamic_array",
						"label": "address[]",
						"numberOfBytes": "32"
					},
					"t_mapping(t_address,t_uint256)": {
						"encoding": "mapping",
						"key": "t_address",
						"label": "mapping(address => uint256)",
						"numberOfBytes": "32",
						"value": "t_uint256"
					},
					"t_uint256": {
						"encoding": "inplace",
						"label": "uint256",
						"numberOfBytes": "32"
					}
				}
			},
			"userdoc": {
				"kind": "user",
				"methods": {},
				"version": 1
			}
		}
	}
}