{
	"data": {
		"bytecode": {
			"linkReferences": {},
			"object": "6080604052640ba43b74005f553480156016575f80fd5b5061057f806100245f395ff3fe60806040526004361061003e575f3560e01c80636e5b6b281461004257806398d5fdca1461007e578063b60d4288146100a8578063dc992aa0146100b2575b5f80fd5b34801561004d575f80fd5b5061006860048036038101906100639190610240565b6100dc565b604051610075919061027a565b60405180910390f35b348015610089575f80fd5b50610092610111565b60405161009f919061027a565b60405180910390f35b6100b06101b6565b005b3480156100bd575f80fd5b506100c6610204565b6040516100d3919061027a565b60405180910390f35b5f806100e6610111565b90505f6402540be40084836100fb91906102c0565b610105919061032e565b90508092505050919050565b5f8073694aa1769357215de4fac081bf1f309adc32530690505f8173ffffffffffffffffffffffffffffffffffffffff1663feaf968c6040518163ffffffff1660e01b815260040160a060405180830381865afa158015610174573d5f803e3d5ffd5b505050506040513d601f19601f8201168201806040525081019061019891906103e4565b5050509150506402540be400816101af919061045b565b9250505090565b5f546101c1346100dc565b1015610202576040517f08c379a00000000000000000000000000000000000000000000000000000000081526004016101f99061052b565b60405180910390fd5b565b5f5481565b5f80fd5b5f819050919050565b61021f8161020d565b8114610229575f80fd5b50565b5f8135905061023a81610216565b92915050565b5f6020828403121561025557610254610209565b5b5f6102628482850161022c565b91505092915050565b6102748161020d565b82525050565b5f60208201905061028d5f83018461026b565b92915050565b7f4e487b71000000000000000000000000000000000000000000000000000000005f52601160045260245ffd5b5f6102ca8261020d565b91506102d58361020d565b92508282026102e38161020d565b915082820484148315176102fa576102f9610293565b5b5092915050565b7f4e487b71000000000000000000000000000000000000000000000000000000005f52601260045260245ffd5b5f6103388261020d565b91506103438361020d565b92508261035357610352610301565b5b828204905092915050565b5f69ffffffffffffffffffff82169050919050565b61037c8161035e565b8114610386575f80fd5b50565b5f8151905061039781610373565b92915050565b5f819050919050565b6103af8161039d565b81146103b9575f80fd5b50565b5f815190506103ca816103a6565b92915050565b5f815190506103de81610216565b92915050565b5f805f805f60a086880312156103fd576103fc610209565b5b5f61040a88828901610389565b955050602061041b888289016103bc565b945050604061042c888289016103d0565b935050606061043d888289016103d0565b925050608061044e88828901610389565b9150509295509295909350565b5f6104658261039d565b91506104708361039d565b925082820261047e8161039d565b91507f800000000000000000000000000000000000000000000000000000000000000084145f841216156104b5576104b4610293565b5b82820584148315176104ca576104c9610293565b5b5092915050565b5f82825260208201905092915050565b7f446964206e6f742073656e6420656e6f756768204554480000000000000000005f82015250565b5f6105156017836104d1565b9150610520826104e1565b602082019050919050565b5f6020820190508181035f83015261054281610509565b905091905056fea2646970667358221220680f5a8f0db6a5f49c4ff0cdef14187699aa90b01b9c7ea3c153affe12e42fb564736f6c634300081a0033",
			"opcodes": "PUSH1 0x80 PUSH1 0x40 MSTORE PUSH5 0xBA43B7400 PUSH0 SSTORE CALLVALUE DUP1 ISZERO PUSH1 0x16 JUMPI PUSH0 DUP1 REVERT JUMPDEST POP PUSH2 0x57F DUP1 PUSH2 0x24 PUSH0 CODECOPY PUSH0 RETURN INVALID PUSH1 0x80 PUSH1 0x40 MSTORE PUSH1 0x4 CALLDATASIZE LT PUSH2 0x3E JUMPI PUSH0 CALLDATALOAD PUSH1 0xE0 SHR DUP1 PUSH4 0x6E5B6B28 EQ PUSH2 0x42 JUMPI DUP1 PUSH4 0x98D5FDCA EQ PUSH2 0x7E JUMPI DUP1 PUSH4 0xB60D4288 EQ PUSH2 0xA8 JUMPI DUP1 PUSH4 0xDC992AA0 EQ PUSH2 0xB2 JUMPI JUMPDEST PUSH0 DUP1 REVERT JUMPDEST CALLVALUE DUP1 ISZERO PUSH2 0x4D JUMPI PUSH0 DUP1 REVERT JUMPDEST POP PUSH2 0x68 PUSH1 0x4 DUP1 CALLDATASIZE SUB DUP2 ADD SWAP1 PUSH2 0x63 SWAP2 SWAP1 PUSH2 0x240 JUMP JUMPDEST PUSH2 0xDC JUMP JUMPDEST PUSH1 0x40 MLOAD PUSH2 0x75 SWAP2 SWAP1 PUSH2 0x27A JUMP JUMPDEST PUSH1 0x40 MLOAD DUP1 SWAP2 SUB SWAP1 RETURN JUMPDEST CALLVALUE DUP1 ISZERO PUSH2 0x89 JUMPI PUSH0 DUP1 REVERT JUMPDEST POP PUSH2 0x92 PUSH2 0x111 JUMP JUMPDEST PUSH1 0x40 MLOAD PUSH2 0x9F SWAP2 SWAP1 PUSH2 0x27A JUMP JUMPDEST PUSH1 0x40 MLOAD DUP1 SWAP2 SUB SWAP1 RETURN JUMPDEST PUSH2 0xB0 PUSH2 0x1B6 JUMP JUMPDEST STOP JUMPDEST CALLVALUE DUP1 ISZERO PUSH2 0xBD JUMPI PUSH0 DUP1 REVERT JUMPDEST POP PUSH2 0xC6 PUSH2 0x204 JUMP JUMPDEST PUSH1 0x40 MLOAD PUSH2 0xD3 SWAP2 SWAP1 PUSH2 0x27A JUMP JUMPDEST PUSH1 0x40 MLOAD DUP1 SWAP2 SUB SWAP1 RETURN JUMPDEST PUSH0 DUP1 PUSH2 0xE6 PUSH2 0x111 JUMP JUMPDEST SWAP1 POP PUSH0 PUSH5 0x2540BE400 DUP5 DUP4 PUSH2 0xFB SWAP2 SWAP1 PUSH2 0x2C0 JUMP JUMPDEST PUSH2 0x105 SWAP2 SWAP1 PUSH2 0x32E JUMP JUMPDEST SWAP1 POP DUP1 SWAP3 POP POP POP SWAP2 SWAP1 POP JUMP JUMPDEST PUSH0 DUP1 PUSH20 0x694AA1769357215DE4FAC081BF1F309ADC325306 SWAP1 POP PUSH0 DUP2 PUSH20 0xFFFFFFFFFFFFFFFFFFFFFFFFFFFFFFFFFFFFFFFF AND PUSH4 0xFEAF968C PUSH1 0x40 MLOAD DUP2 PUSH4 0xFFFFFFFF AND PUSH1 0xE0 SHL DUP2 MSTORE PUSH1 0x4 ADD PUSH1 0xA0 PUSH1 0x40 MLOAD DUP1 DUP4 SUB DUP2 DUP7 GAS STATICCALL ISZERO DUP1 ISZERO PUSH2 0x174 JUMPI RETURNDATASIZE PUSH0 DUP1 RETURNDATACOPY RETURNDATASIZE PUSH0 REVERT JUMPDEST POP POP POP POP PUSH1 0x40 MLOAD RETURNDATASIZE PUSH1 0x1F NOT PUSH1 0x1F DUP3 ADD AND DUP3 ADD DUP1 PUSH1 0x40 MSTORE POP DUP2 ADD SWAP1 PUSH2 0x198 SWAP2 SWAP1 PUSH2 0x3E4 JUMP JUMPDEST POP POP POP SWAP2 POP POP PUSH5 0x2540BE400 DUP2 PUSH2 0x1AF SWAP2 SWAP1 PUSH2 0x45B JUMP JUMPDEST SWAP3 POP POP POP SWAP1 JUMP JUMPDEST PUSH0 SLOAD PUSH2 0x1C1 CALLVALUE PUSH2 0xDC JUMP JUMPDEST LT ISZERO PUSH2 0x202 JUMPI PUSH1 0x40 MLOAD PUSH32 0x8C379A000000000000000000000000000000000000000000000000000000000 DUP2 MSTORE PUSH1 0x4 ADD PUSH2 0x1F9 SWAP1 PUSH2 0x52B JUMP JUMPDEST PUSH1 0x40 MLOAD DUP1 SWAP2 SUB SWAP1 REVERT JUMPDEST JUMP JUMPDEST PUSH0 SLOAD DUP2 JUMP JUMPDEST PUSH0 DUP1 REVERT JUMPDEST PUSH0 DUP2 SWAP1 POP SWAP2 SWAP1 POP JUMP JUMPDEST PUSH2 0x21F DUP2 PUSH2 0x20D JUMP JUMPDEST DUP2 EQ PUSH2 0x229 JUMPI PUSH0 DUP1 REVERT JUMPDEST POP JUMP JUMPDEST PUSH0 DUP2 CALLDATALOAD SWAP1 POP PUSH2 0x23A DUP2 PUSH2 0x216 JUMP JUMPDEST SWAP3 SWAP2 POP POP JUMP JUMPDEST PUSH0 PUSH1 0x20 DUP3 DUP5 SUB SLT ISZERO PUSH2 0x255 JUMPI PUSH2 0x254 PUSH2 0x209 JUMP JUMPDEST JUMPDEST PUSH0 PUSH2 0x262 DUP5 DUP3 DUP6 ADD PUSH2 0x22C JUMP JUMPDEST SWAP2 POP POP SWAP3 SWAP2 POP POP JUMP JUMPDEST PUSH2 0x274 DUP2 PUSH2 0x20D JUMP JUMPDEST DUP3 MSTORE POP POP JUMP JUMPDEST PUSH0 PUSH1 0x20 DUP3 ADD SWAP1 POP PUSH2 0x28D PUSH0 DUP4 ADD DUP5 PUSH2 0x26B JUMP JUMPDEST SWAP3 SWAP2 POP POP JUMP JUMPDEST PUSH32 0x4E487B7100000000000000000000000000000000000000000000000000000000 PUSH0 MSTORE PUSH1 0x11 PUSH1 0x4 MSTORE PUSH1 0x24 PUSH0 REVERT JUMPDEST PUSH0 PUSH2 0x2CA DUP3 PUSH2 0x20D JUMP JUMPDEST SWAP2 POP PUSH2 0x2D5 DUP4 PUSH2 0x20D JUMP JUMPDEST SWAP3 POP DUP3 DUP3 MUL PUSH2 0x2E3 DUP2 PUSH2 0x20D JUMP JUMPDEST SWAP2 POP DUP3 DUP3 DIV DUP5 EQ DUP4 ISZERO OR PUSH2 0x2FA JUMPI PUSH2 0x2F9 PUSH2 0x293 JUMP JUMPDEST JUMPDEST POP SWAP3 SWAP2 POP POP JUMP JUMPDEST PUSH32 0x4E487B7100000000000000000000000000000000000000000000000000000000 PUSH0 MSTORE PUSH1 0x12 PUSH1 0x4 MSTORE PUSH1 0x24 PUSH0 REVERT JUMPDEST PUSH0 PUSH2 0x338 DUP3 PUSH2 0x20D JUMP JUMPDEST SWAP2 POP PUSH2 0x343 DUP4 PUSH2 0x20D JUMP JUMPDEST SWAP3 POP DUP3 PUSH2 0x353 JUMPI PUSH2 0x352 PUSH2 0x301 JUMP JUMPDEST JUMPDEST DUP3 DUP3 DIV SWAP1 POP SWAP3 SWAP2 POP POP JUMP JUMPDEST PUSH0 PUSH10 0xFFFFFFFFFFFFFFFFFFFF DUP3 AND SWAP1 POP SWAP2 SWAP1 POP JUMP JUMPDEST PUSH2 0x37C DUP2 PUSH2 0x35E JUMP JUMPDEST DUP2 EQ PUSH2 0x386 JUMPI PUSH0 DUP1 REVERT JUMPDEST POP JUMP JUMPDEST PUSH0 DUP2 MLOAD SWAP1 POP PUSH2 0x397 DUP2 PUSH2 0x373 JUMP JUMPDEST SWAP3 SWAP2 POP POP JUMP JUMPDEST PUSH0 DUP2 SWAP1 POP SWAP2 SWAP1 POP JUMP JUMPDEST PUSH2 0x3AF DUP2 PUSH2 0x39D JUMP JUMPDEST DUP2 EQ PUSH2 0x3B9 JUMPI PUSH0 DUP1 REVERT JUMPDEST POP JUMP JUMPDEST PUSH0 DUP2 MLOAD SWAP1 POP PUSH2 0x3CA DUP2 PUSH2 0x3A6 JUMP JUMPDEST SWAP3 SWAP2 POP POP JUMP JUMPDEST PUSH0 DUP2 MLOAD SWAP1 POP PUSH2 0x3DE DUP2 PUSH2 0x216 JUMP JUMPDEST SWAP3 SWAP2 POP POP JUMP JUMPDEST PUSH0 DUP1 PUSH0 DUP1 PUSH0 PUSH1 0xA0 DUP7 DUP9 SUB SLT ISZERO PUSH2 0x3FD JUMPI PUSH2 0x3FC PUSH2 0x209 JUMP JUMPDEST JUMPDEST PUSH0 PUSH2 0x40A DUP9 DUP3 DUP10 ADD PUSH2 0x389 JUMP JUMPDEST SWAP6 POP POP PUSH1 0x20 PUSH2 0x41B DUP9 DUP3 DUP10 ADD PUSH2 0x3BC JUMP JUMPDEST SWAP5 POP POP PUSH1 0x40 PUSH2 0x42C DUP9 DUP3 DUP10 ADD PUSH2 0x3D0 JUMP JUMPDEST SWAP4 POP POP PUSH1 0x60 PUSH2 0x43D DUP9 DUP3 DUP10 ADD PUSH2 0x3D0 JUMP JUMPDEST SWAP3 POP POP PUSH1 0x80 PUSH2 0x44E DUP9 DUP3 DUP10 ADD PUSH2 0x389 JUMP JUMPDEST SWAP2 POP POP SWAP3 SWAP6 POP SWAP3 SWAP6 SWAP1 SWAP4 POP JUMP JUMPDEST PUSH0 PUSH2 0x465 DUP3 PUSH2 0x39D JUMP JUMPDEST SWAP2 POP PUSH2 0x470 DUP4 PUSH2 0x39D JUMP JUMPDEST SWAP3 POP DUP3 DUP3 MUL PUSH2 0x47E DUP2 PUSH2 0x39D JUMP JUMPDEST SWAP2 POP PUSH32 0x8000000000000000000000000000000000000000000000000000000000000000 DUP5 EQ PUSH0 DUP5 SLT AND ISZERO PUSH2 0x4B5 JUMPI PUSH2 0x4B4 PUSH2 0x293 JUMP JUMPDEST JUMPDEST DUP3 DUP3 SDIV DUP5 EQ DUP4 ISZERO OR PUSH2 0x4CA JUMPI PUSH2 0x4C9 PUSH2 0x293 JUMP JUMPDEST JUMPDEST POP SWAP3 SWAP2 POP POP JUMP JUMPDEST PUSH0 DUP3 DUP3 MSTORE PUSH1 0x20 DUP3 ADD SWAP1 POP SWAP3 SWAP2 POP POP JUMP JUMPDEST PUSH32 0x446964206E6F742073656E6420656E6F75676820455448000000000000000000 PUSH0 DUP3 ADD MSTORE POP JUMP JUMPDEST PUSH0 PUSH2 0x515 PUSH1 0x17 DUP4 PUSH2 0x4D1 JUMP JUMPDEST SWAP2 POP PUSH2 0x520 DUP3 PUSH2 0x4E1 JUMP JUMPDEST PUSH1 0x20 DUP3 ADD SWAP1 POP SWAP2 SWAP1 POP JUMP JUMPDEST PUSH0 PUSH1 0x20 DUP3 ADD SWAP1 POP DUP2 DUP2 SUB PUSH0 DUP4 ADD MSTORE PUSH2 0x542 DUP2 PUSH2 0x509 JUMP JUMPDEST SWAP1 POP SWAP2 SWAP1 POP JUMP INVALID LOG2 PUSH5 0x6970667358 0x22 SLT KECCAK256 PUSH9 0xF5A8F0DB6A5F49C4F CREATE 0xCD 0xEF EQ XOR PUSH23 0x99AA90B01B9C7EA3C153AFFE12E42FB564736F6C634300 ADDMOD BYTE STOP CALLER "
		},
		"gasEstimates": {
			"creation": {
				"codeDepositCost": "281400",
				"executionCost": "22421",
				"totalCost": "303821"
			},
			"external": {
				"fund()": "infinite",
				"getConversionRate(uint256)": "infinite",
				"getPrice()": "infinite",
				"minUSD()": "2468"
			}
		},
		"methodIdentifiers": {
			"fund()": "b60d4288",
			"getConversionRate(uint256)": "6e5b6b28",
			"getPrice()": "98d5fdca",
			"minUSD()": "dc992aa0"
		}
	},
	"abi": [
		{
			"inputs": [],
			"name": "fund",
			"outputs": [],
			"stateMutability": "payable",
			"type": "function"
		},
		{
			"inputs": [
				{
					"internalType": "uint256",
					"name": "ethAmount",
					"type": "uint256"
				}
			],
			"name": "getConversionRate",
			"outputs": [
				{
					"internalType": "uint256",
					"name": "",
					"type": "uint256"
				}
			],
			"stateMutability": "view",
			"type": "function"
		},
		{
			"inputs": [],
			"name": "getPrice",
			"outputs": [
				{
					"internalType": "uint256",
					"name": "",
					"type": "uint256"
				}
			],
			"stateMutability": "view",
			"type": "function"
		},
		{
			"inputs": [],
			"name": "minUSD",
			"outputs": [
				{
					"internalType": "uint256",
					"name": "",
					"type": "uint256"
				}
			],
			"stateMutability": "view",
			"type": "function"
		}
	]
}